:020000040800F2
:10000000B009002049010008F9190008211300086F
:100010005D190008DD0C0008C12600080000000082
:10002000000000000000000000000000E11F0008C8
:10003000010F000800000000811E0008E5200008F4
:100040006301000863010008630100086301000800
:1000500063010008630100086301000863010008F0
:1000600063010008630100086301000863010008E0
:1000700063010008630100086301000863010008D0
:10008000630100086301000863010008000000002C
:1000900000000000000000000000000063010008F4
:1000A00063010008392100086301000863010008AA
:1000B000F52100086301000805220008630100081B
:1000C0006301000863010008630100086301000880
:1000D00063010008B122000863010008E122000862
:1000E0006301000863010008630100086301000860
:1000F0006301000863010008000000000000000028
:100100000000000000000000630100086301000817
:10011000630100086301000863010008630100082F
:10012000630100086301000863010008630100081F
:1001300063010008DFF80CD000F0CEFC0048004757
:1001400051480008B009002006488047064800478B
:10015000FEE7FEE7FEE7FEE7FEE7FEE7FEE7FEE777
:10016000FEE7FEE7E9200008350100082DE9F0412F
:100170000024061B254671F1000605DA012400273C
:10018000D0EB070067EB0101161E73F1000605DADC
:100190000027D2EB0702012567EB030300F075FB94
:1001A00086460E4617469C46AC4204D00025D0EB4E
:1001B000050E65EB010624B10020D2EB000760EBD1
:1001C000030C704631463A466346BDE8F081D2B230
:1001D00001E000F8012B491EFBD270470022F6E730
:1001E00010B513460A4604461946FFF7F0FF2046AD
:1001F00010BD30B504460020034600E05B1C93426E
:1002000003D2E05CCD5C401BF8D030BD30B5054674
:100210000020034600E05B1C934205D2EC5CC85C06
:10022000201A01D1002CF6D130BDF0B480EA0102D1
:10023000D40F4200B2EB410F02D2024608461146EB
:100240004A0042D0C30DDDB2C1F3C752AD1A202D12
:1002500035DAC1F3160141F4000204B15242C5F18E
:10026000200602FA06F12A411044B3EBD05F23D0F6
:10027000C4B1012DA0EBC35009DCF0BC4FF000422B
:1002800002EAC352DBB200F5000000F069BB400097
:1002900000F1807000EBC350A0F1807040EAD17093
:1002A000490009E0490841EAC071A0EBC35000F5DC
:1002B0000000400800EBC350F0BC00F048BB6142B6
:1002C000012202EB4101001BF6E7F0BC704781F010
:1002D0000041AAE780F00040A7E780EA010210B5DC
:1002E00002F00043400022D04A001FD0010E01EB73
:1002F0001261C0F35600C2F3560240F4000042F40B
:100300000002A0FB022000047F39140400D0401C2E
:1003100050EA124001D44000491EC2B20C0604EB60
:10032000D010401C4008802A02D003E0002010BDFD
:1003300020F00100002900DA0020184310BD30B47D
:1003400080EA010202F0004530F0004221F0004056
:1003500013D090B1C30DD40DC2F31601C0F3160033
:10036000E41A41F4000140F400027D34914201D3CB
:10037000641C00E04900002C02DA30BC0020704709
:100380004FF400000023914201D3891A034340082F
:100390004FEA4101F7D151B1914202D14FF00041F2
:1003A00005E002D24FF0010101E06FF0010103EB23
:1003B000C450284430BC00F0CABA420005D0C0F393
:1003C000C7525242914201DC0020704700EBC150FD
:1003D00070472DE9FE4F804681EA0300C00F0C46AE
:1003E000009021F0004123F00045B8EB0200A94144
:1003F00005D24046214690461C460B46024623F055
:100400000040104347D0270DC7F30A00C3F30A5139
:100410000290401A019040286BDAC3F3130040F4B5
:10042000801B0098924620B10023D2EB030A63EBB5
:100430000B0B01985946C0F14002504600F056FAA5
:1004400006460D4650465946019A00F06EFA10EBEA
:1004500008006141002487EA115284EAE7731A43D5
:1004600040D0009A62B3019A012A4FEA075215DC84
:10047000001B61EB02014FF0004202EA0752CDE996
:100480000042001C41F5801132462B4600F0A5FACF
:1004900003B0BDE8F08F40462146F9E7001B61EB51
:1004A0000201001C41F5801300185B412018A2F5E1
:1004B000001747EB030140EAD570B6196D4111E012
:1004C0006D084FEA360645EAC0754FEA0752001B31
:1004D00061EB0201001C41F5801149084FEA300030
:1004E0000019514132462B4603B0BDE8F04F00F0F1
:1004F00065BA0098012240000023D0EB020263EBB2
:10050000E073009821464FEAE074B8EB000061EB1D
:100510000401E9E783F000435BE781F0004158E71D
:100520002DE9FE4F81EA030404F0004421F000416C
:1005300000944FF0000B23F0004350EA01045ED01A
:1005400052EA03045BD0C3F30A54C1F30A552C44A6
:10055000A4F2F3340194A0FB0254C1F3130141F45B
:100560008011C3F3130343F4801301FB024400FB27
:10057000034E840A970A44EA815447EA8357A4FB4E
:10058000076802958D0A05FB07854FEA932C04FB4B
:100590000C542705029D4FEA065847EA1637B5EB7B
:1005A00008056EEB070C870E920E47EA811742EAA8
:1005B0008312A7FB0201B6EB0B0164EB00042B0DC9
:1005C00043EA0C335E1844EB1C50DA465146E7FB15
:1005D0000201C5F313044FEA0B3343EA14534FEA05
:1005E0000432019C43EA0603A4F10C040294009C2B
:1005F000CDE900B400F0F1F903B0BDE8F08F0020C0
:100600000146F9E72DE9F04D81EA030404F0004BBF
:1006100021F0004514464FF0000A23F0004150EA53
:10062000050220D054EA01021DD0C5F30A57024644
:10063000C5F31303C1F31300C1F30A5640F4801548
:1006400043F48013A7EB0608101BD64608F2FD38CA
:1006500073EB050002D308F1010801E092185B4139
:10066000B8F1000F03DA00200146BDE8F08D00204C
:100670004FF48011064684460EE0171B73EB050706
:1006800005D3121B63EB050306434CEA010C490832
:100690004FEA300092185B4150EA0107EDD152EA6F
:1006A000030012D082EA040083EA0501084305D062
:1006B000101BAB4106D20122002306E000224FF0BE
:1006C000004302E06FF0010253101AEB06004CEBFE
:1006D000085110EB0A0041EB0B01BDE8F04D00F0B2
:1006E0006DB970B521F0004303430CD0C1F30A5536
:1006F0000024D5EB040564EB0403D617AD1AB3410F
:1007000002DB0020014670BD201841EB025170BD94
:10071000C10F80EAE0700844CA079623002100F068
:100720001FB996230022114600F01AB90EB5C10F69
:1007300080EAE0700844CA07002140F233438DE8A4
:100740000E000A460B4600F048F903B000BD0EB596
:1007500040F2334102910021CDE900110A460B46D7
:1007600000F03BF903B000BD00F0004220F0004073
:10077000C10DC0F3160040F400007F2901DA00200B
:100780007047962903DCC1F19601C84001E0963913
:100790008840002AF4D04042704720F00040C10D4C
:1007A000C0F3160040F400007F2901DA00207047F2
:1007B000962903DCC1F19601C840704796398840FC
:1007C000704770B5C1F30A5201F000450024C1F32F
:1007D000130140F2FF3341F480119A4201DA002004
:1007E00070BD40F233439A42A2F2334203DC5242DC
:1007F00000F08BF800E090402C43F1D0404270BDF7
:1008000000F0004230F000400AD0C10D01F56071E7
:10081000C0F3160042EA0151C20840071143704775
:1008200000200146704701F0004330B421F0004140
:1008300050EA010206D00A0DA2F56072C1F313015D
:10084000002A02DC30BC00207047440F44EAC10497
:10085000C100E01830BC00EBC25000F078B830B5F1
:100860000B46014600202022012409E021FA02F56E
:100870009D4205D303FA02F5491B04FA02F5284408
:10088000151EA2F10102F1DC30BD2DE9F05F054635
:10089000002092469B4688460646814640241BE03F
:1008A000284641464746224600F02FF853465A460E
:1008B000C01A914110D311461846224600F016F88E
:1008C0002D1A67EB01084F4622460120002100F057
:1008D0000DF817EB00094E41201EA4F10104DFDCE6
:1008E000484631462A464346BDE8F09F202A04DBAD
:1008F000203A00FA02F1002070479140C2F1200333
:1009000020FA03F3194390407047202A04DB203A71
:1009100021FA02F00021704721FA02F3D040C2F11F
:1009200020029140084319467047202A06DBCB1766
:10093000203A41FA02F043EAE07306E041FA02F39A
:10094000D040C2F120029140084319467047002967
:10095000A8BF7047401C490008BF20F00100704745
:1009600010B4B0FA80FC00FA0CF050EA010404BFA5
:1009700010BC704749B1CCF1200421FA04F411FAFB
:100980000CF118BF012121430843A3EB0C01CB1D3F
:100990004FEA00614FEA102042BF002010BC7047B0
:1009A00000EBC35010440029A4BF10BC7047401C8A
:1009B000490008BF20F0010010BC704710B5141E9C
:1009C00073F1000408DA401C41F1000192185B4108
:1009D0001A4301D120F0010010BD2DE9F04D9246DF
:1009E0009B4611B1B1FA81F202E0B0FA80F22032F6
:1009F0009046FFF77BFF04460F4640EA0A0041EAB3
:100A00000B0153465A46084313D0114653EA0100DE
:100A100019D0C8F140025046FFF777FF05460E4651
:100A2000504659464246FFF761FF084305D0012072
:100A300004E020463946BDE8F08D0020054346EA33
:100A4000E0762C4337430A986305E40AA0EB0800DC
:100A50000022FD0A44EA47540A3002D5002001462C
:100A6000E9E7010510196941DDE908450019694107
:100A7000BDE8F04DA2E7C1F30A52C1F3130140F201
:100A8000FF3341F480119A4202DA00200146704798
:100A900040F233439A42A2F2334202DC5242FFF761
:100AA00034BFFFF723BF000030B5041E71F100040E
:100AB00004DB4FF00044404264EB0101141E73F16B
:100AC000000405DB1C464FF00043524263EB040375
:100AD000994208BF904230BD064C074D06E0E068E1
:100AE00040F0010394E8070098471034AC42F6D375
:100AF000FFF724FB58740008787400082DE9F04DC6
:100B000000231A461B1A8A4103DB00200146BDE878
:100B1000F08DC1F30A52C1F3130141F480154FF077
:100B2000000BD10702D100186D41521E0027044668
:100B300040F2FF11384601EB620A3E46804602460B
:100B400000204FF48011FFF7E0FEC2197141BB187D
:100B500046EB0100B4EB030C75EB000C04D3E41A74
:100B600065EB000517460E46241908F101006D419A
:100B700080463428E3DDF91946EB0600091BA8413D
:100B800003D24FF0FF32134601E0002213461BEB65
:100B9000070046EB0A51BDE8F04DFFF70FBF70B5F7
:100BA0008C1810F8015B15F0070301D110F8013B18
:100BB0002A1106D110F8012B03E010F8016B01F89F
:100BC000016B5B1EF9D12B0705D40023521E0DD4F7
:100BD00001F8013BFAE710F8013BCB1A921C03E045
:100BE00013F8015B01F8015B521EF9D5A142D8D37D
:100BF000002070BD354810B5816941F00401816164
:100C000033490A6822F470220A60816941F4007154
:100C10008161C16841F40071C160C16821F4007153
:100C2000C160416821F440414160416841F40041A4
:100C3000416028480168284A11400160016801604C
:100C4000016821F480710160001D016821F002013A
:100C50000160016821F460210160016841F46021B4
:100C60000160016841F480110160016821F40061B4
:100C70000160184928310A6822F470020A600A6883
:100C800000220A6013490C310A6822F470220A60BB
:100C90000A6842F4E0420A60016841F00101016023
:100CA000016841F00801016001680907FCD401688E
:100CB00041F00401016001684907FCD4012002F001
:100CC000D1FDBDE8104000F001BB00000010024063
:100CD0000008014004240140FFFFF000FEE700008F
:100CE00038B5002000906B4601227521682003F082
:100CF000D1FC30A001F03AFD9DF80000682809D031
:100D000035480168354A01F4E06111430160BFF3E1
:100D1000408FFEE703F0BCFE002849D1782004F0A4
:100D200075FB10B923A001F021FD782003F0E2FD4E
:100D300010B92BA001F01AFDC82004F027FB10B950
:100D400031A001F013FD02F0FBFE10B938A001F054
:100D50000DFD4448044603F0FFFC0546E01C03F08B
:100D6000FBFC45EAC005A01D03F0F6FC45EA801037
:100D700080B203F095F810B93BA001F0F7FC40F207
:100D8000731002F0B5FD10B941A001F0EFFCC820CE
:100D900002F0EEFF10B948A001F0E8FC04F0DAFC24
:100DA000012004F019FA002802D14CA001F0DEFC69
:100DB00038BD00006D70755F7365745F73656E7329
:100DC0006F7220636F6D706C657465202E2E2E2EF1
:100DD0002E2E0D0A000000000CED00E00400FA05C4
:100DE0006D70755F636F6E6669677572655F666962
:100DF000666F20636F6D706C657465202E2E2E2ECD
:100E00002E2E0D0A000000006D70755F7365745F13
:100E100073616D706C655F7261746520636F6D7076
:100E20006C657465202E2E2E2E2E2E0D0A000000CD
:100E3000646D705F6C6F61645F6D6F74696F6E5F1E
:100E40006472697665725F6669726D77617265203A
:100E5000636F6D706C657465202E2E2E2E2E2E0DF8
:100E60000A000000C0000020646D705F7365745F4D
:100E70006F7269656E746174696F6E20636F6D70F7
:100E80006C657465202E2E2E2E2E2E0D0A0000006D
:100E9000646D705F656E61626C655F6665617475D7
:100EA000726520636F6D706C657465202E2E2E2E1A
:100EB0002E2E0D0A00000000646D705F7365745F74
:100EC0006669666F5F7261746520636F6D706C65D3
:100ED0007465202E2E2E2E2E2E0D0A006D70755F3D
:100EE0007365745F646D705F737461746520636FA4
:100EF0006D706C657465202E2E2E2E2E2E0D0A0020
:100F000070470000314810B5C16941F00401C1616A
:100F1000816941F0080181612D48016821F070610B
:100F20000160016841F000610160016821F07041D9
:100F30000160016841F0804101602648018841F06C
:100F400001010180018841F04001018001231E223E
:100F50000321184600F0D6FC1E4800231C300380F5
:100F60001C494FF6E750203108801A480C38018898
:100F700021F440710180018821F060010180154950
:100F80000C310A8842F001020A800A8842F4807219
:100F90000A80104A1432148824F002041480148841
:100FA00024F0200414800A8842F030020A800949A3
:100FB000091F0A8842F003020A80064918310B8093
:100FC000018841F00101018010BD000000100240C5
:100FD000000C01400C0800402A4810B5C16941F0DE
:100FE0000101C161816941F0040181612648016804
:100FF00021F00F010160016841F004010160016806
:1010000021F0F0010160016841F040010160C40479
:10101000A08940F00100A081A08940F04000A0819B
:1010200001231C220321184600F06CFC00202085BF
:101030004FF6E751A185218821F440712180218854
:1010400021F060012180218B41F001012183218B5E
:1010500041F480712183218C21F002012184218CB3
:1010600021F020012184218B41F03001218321894D
:1010700041F003012181A084208840F001002080FC
:1010800010BD00000010024000080140F0B5CA7811
:10109000002502F00F03D20601D58A7813430A789F
:1010A0004FF00F0E12F0FF0F4FF001021CD004683A
:1010B0000F8802FA05F63740B74211D14FEA850C86
:1010C0000EFA0CF724EA070703FA0CF43C43CF7836
:1010D000282F02D0482F02D002E0466100E00661CE
:1010E0006D1C082DE4D304600C88FF2C1ED94468C5
:1010F0005FF0000606F1080702FA07F50F882F4097
:10110000AF420FD14FEA860C0EFA0CF7BC4303FA3C
:101110000CF73C43CF78282F00D14561CF78482F7A
:1011200000D10561761C082EE4D34460F0BD416116
:1011300070470161704700000B490A6822F01F02E6
:101140000A600A6802430A6007482C38016841F4C3
:10115000800101600448343801688907FCD50248E1
:101160001830006880B27047342401402DE9F04700
:1011700001287DD04621D02000F0D3F80446452137
:10118000D02000F0CEF804EB0020FFF7CAFA0546A5
:101190004821D02000F0C5F804464721D02000F0B7
:1011A000C0F804EB0020FFF7BCFA04463C21D02035
:1011B00000F0B7F806463B21D02000F0B2F806EB6D
:1011C0000020FFF7AEFA80464021D02000F0A9F8B9
:1011D00006463F21D02000F0A4F806EB0020FFF7E0
:1011E000A0FA4FF08E4706464FF08F49BD4204DD0E
:1011F00049462846FFF76BF80546BC4204DD4946E0
:101200002046FFF764F804464046B84503DD4946EA
:10121000FFF75DF88046BE4204DD49463046FFF7E1
:1012200056F80646204985F0004008603046FFF732
:10123000E7FA07460E464046FFF7E2FA3A463346DB
:1012400002F020FA0022194BFFF76AF9184A194BED
:10125000FFF7D8F9FFF7E7FA06462846FFF7D0FA76
:101260004FF06632144BFFF7CDF9FFF7DCFA00E0E0
:1012700017E012490978022902D0032906D00AE0B2
:1012800080F00041304600F035FA04E080F0004183
:10129000304601F031FA0A480A49006808600A48F5
:1012A0000460BDE8F0870000080000200080664070
:1012B000F1D4C853FB21094066663040000000208D
:1012C00004010020040000200C00002010B50420C0
:1012D000FFF732FFFFF73BFA4FF066320B4BFFF799
:1012E0001FF900220A4BFFF71BF90022094BFFF7F9
:1012F00017F90022084BFFF785F96FF00B02FFF793
:10130000F0F9FFF75EFA0549086010BD66660A400D
:1013100000002740000059400000F83F480000202E
:10132000FEE770B50D46044600F0D6F8204600F002
:10133000A3F800F019F9284600F09EF800F014F91F
:1013400000F0CAF8641CE0B200F096F800F00CF966
:10135000002000F05BF8044600F0E6F8204670BD7F
:1013600070B50D4C0025C4F8AC510C48016821F053
:101370000F010160016841F003010160C4F8A05150
:10138000012004F5D07402F081FA0120E06002F03F
:101390007DFAE56070BD00000000214204080140B4
:1013A0000848816941F004018161074801684FF2F2
:1013B0000F0291430160016843F20302114301608F
:1013C00070470000001002400408014070B50D4C49
:1013D0000025C4F8AC510C48016821F00F010160F0
:1013E000016841F0030101600126C4F8A0613046A4
:1013F00004F5D07402F04AFAE660012002F046FAE1
:10140000E56070BD00002142040801402DE9F0476D
:10141000814617480024016821F00F01016001682E
:1014200041F008010160134E254627464FF00108A0
:10143000C6F8AC71022002F029FAC6F8AC81600649
:10144000040ED6F8200108B1641CE4B2022002F0B8
:101450001DFA6D1CEDB2082DEAD3B9F1000F02D0D0
:10146000FFF77EFF01E0FFF7B1FF2046BDE8F08700
:1014700004080140000021422DE9F04106461448CD
:10148000016821F00F010160016841F00301016072
:10149000104C0027C4F8AC713D464FF00108F0092C
:1014A000C4F8A0017006060E012002F0EFF9C4F89E
:1014B000AC81012002F0EAF9C4F8AC71012002F01D
:1014C000E5F96D1CEDB2082DE9D3BDE8F08100000F
:1014D000040801400000214270B51148016821F064
:1014E0000F010160016841F0030101600D4C012012
:1014F000C4F8A001D4F8201149B1C4F8AC0102F03D
:10150000C5F90025C4F8A051D4F8200108B1002085
:1015100070BD012002F0BAF9C4F8AC51012070BDD1
:1015200004080140000021420D4810B5016821F077
:101530000F010160016841F003010160094C0020C6
:10154000C4F8AC01C4F8A001012004F5D07402F085
:101550009DF90120E0602060BDE8104002F096B9DE
:10156000040801400000214270B5134800240168BE
:1015700021F00F010160016841F0080101600F4D89
:101580000126C5F8A061304602F080F9C5F8AC61CB
:1015900007E0641CE4B2322C03D9FFF7C5FF00203A
:1015A00070BD012002F072F9D5F820010028F0D1B9
:1015B000C5F8AC01012070BD0408014000002142C3
:1015C00010B51446FFF7ADFE2070012010BDF8B530
:1015D00015461C460E4607466A46FFF7F1FF0120F6
:1015E0009DF80010A8400CB1084301E021EA00007A
:1015F000C2B28DF800203146384600F02BF8F8BD15
:101600002DE9F84314461D460F4680466A46089E5B
:10161000FFF7D6FF00281BD0611CFF20C4F1080291
:1016200000FA01F12A44521ED0400143C5F10800DE
:101630008640F2B2C4F10700C2409DF800000840A5
:1016400010438DF80000C2B23946404600F002F85F
:10165000BDE8F88307B502AB012200F001F80EBD2A
:101660002DE9F0411E461546884607460024FFF73F
:1016700033FF3846FFF700FFFFF776FF4046FFF7DE
:10168000FBFEFFF771FF06E0305DFFF7F5FEFFF7A9
:101690006BFF641CE4B2AC42F6D3FFF745FF0120B8
:1016A000BDE8F08141060748826942F0010282618B
:1016B0000548426822F0E062426042680A434260A4
:1016C0007047000000100240000001400748816997
:1016D00041F0080181610648016821F47001016050
:1016E000016841F4000101607047000000100240F1
:1016F000000C01402DE9F34F554C87B0216A04914D
:101700000898FEF7E4FD61690091FEF7E6FDA16926
:10171000FEF78BFD04F144050390D5F804A0A06802
:101720005146FEF7D4FDD5F808904946FEF7CFFDA7
:1017300048490860EA6882F000464E608E60E768BB
:10174000CF6090460099FEF7C8FD2968FEF76DFD51
:10175000834630460099FEF7C0FD06465146FEF727
:1017600064FD029030464946FEF75FFD82463846EA
:101770000099FEF7B2FD4146FEF757FD81460399F9
:101780000798FEF7A4FD804660622078FEF7C9FF47
:1017900059460190FEF7A1FD0646A0625146019808
:1017A000FEF79BFDE062059031460198FEF795FD3E
:1017B0002169FEF73AFD0746206339463046FEF7B9
:1017C000BEFD6063009039460598FEF7B8FDC4E998
:1017D0000E060746DDE90101FEF77FFD206401905A
:1017E00031460098FEF779FD5946FEF773FD2860F3
:1017F000DDE90001FEF771FD0299FEF76BFD6860FF
:1018000031463846FEF769FD5146FEF763FDA86094
:1018100038460199FEF761FD4946FEF75BFDE86039
:1018200041460098FEF759FD0399FEF7FEFCA061C2
:1018300041463846FEF751FD0499FEF7F6FC014695
:1018400020620898FEF743FDE06109B0BDE8F08F23
:10185000EC0000209C05002007490A68521C0A6021
:10186000824207D10548D0F8A021D243C0F8A02178
:1018700000200860704700006000002000802142C6
:1018800010B5022000F011F8022000F020F800202E
:1018900000F014F8002000F02FF8002000F026F8E7
:1018A000BDE81040002000F01BB808B503230090ED
:1018B00002226B21D020FFF7A3FE08BD08B502234A
:1018C000009004221C21D020FFF79AFE08BD08B525
:1018D0000223009004221B21D020FFF791FE08BDB7
:1018E000034601223721D020FFF771BE03460522AF
:1018F0006A21D020FFF76BBE034606226B21D02061
:10190000FFF765BE10B51846144600F015F8012023
:101910004FF0E021202C06D2D1F80021A040024354
:10192000C1F8002110BDD1F80421203CA0400243A1
:10193000C1F8042110BD0000072181430A020549B6
:1019400008684FF6FF031840034B18431043086024
:10195000704700000CED00E00000FA05FEE7000013
:10196000214A10B5D36943F00203D361936943F070
:10197000080393611D4A136823F0FF031360136883
:1019800043F0BB031360121D13689BB2136013680E
:10199000174C23431360174A1080101F018015480D
:1019A0001038018841F4C0410180018841F0600194
:1019B0000180018841F400610180018841F0080143
:1019C0000180001D018841F480510180018841F4AB
:1019D00080710180C11307482C380180018841F0D3
:1019E0000101018010BD000000100240000C014008
:1019F000000022222C0400407047000070B50F2325
:101A0000C47801780122F4B1144C2468457804F4B8
:101A1000E064C4F5E064240AC4F10406E340847879
:101A2000B5401C402C4301F1E021230181F8003432
:101A3000007800F01F018A404009800000F1E0209A
:101A4000C0F8002170BD01F01F00824048098000ED
:101A500000F1E020C0F8802170BD00000CED00E036
:101A600030B40021084B0A465FF0000003EBC004CD
:101A7000401CC0B262548028F8D3491CC9B208295E
:101A8000F2D330BC00F0E4B89C01002010B5002176
:101A90008D2000F0C1F90021142000F0BDF90021D3
:101AA000BDE81040AF2000F0B7B9000010B57F28A6
:101AB00016D83F2914D80723A3EBD10301F007015F
:101AC000C1F107040121A140064CDBB204EBC000C8
:101AD000002AC25CC9B201D00A4300E08A43C25462
:101AE00010BD00009C010020524810B5816941F0F2
:101AF0000801816150490A6822F0F0020A600A6810
:101B000042F020020A60816941F01001816181691F
:101B100041F00101816149494A68C2F313024A60F8
:101B20004A68474B1A434A6046490A6842F4807241
:101B30000A60026A22F0010202624348028822F02F
:101B400001020280086820F4807008603F4C002089
:101B5000C4F8B401642004F5DA7401F083FE0120B6
:101B600020600021AE2000F057F90021D52000F0C0
:101B700053F90021502000F04FF90021A82000F077
:101B80004BF900213F2000F047F90021D32000F05D
:101B900043F90021084600F03FF90021402000F001
:101BA0003BF900218D2000F037F90021142000F0CE
:101BB00033F90021202000F02FF90021022000F04D
:101BC0002BF90021A12000F027F90021C02000F00E
:101BD00023F90021DA2000F01FF90021122000F083
:101BE0001BF90021812000F017F90021EF2000F0FF
:101BF00013F90021D92000F00FF90021F12000F0A5
:101C00000BF90021DB2000F007F90021302000F063
:101C100003F90021A42000F0FFF80021A62000F025
:101C2000FBF80021AF2000F0F7F8BDE81040FFF707
:101C300017BF000000100240040C014000100140DA
:101C40000000202200700040306C00400000224262
:101C500070B5114E002400BF04F1B000C0B20021E5
:101C600000F0DAF80021084600F0D6F80021102034
:101C700000F0D2F85FF0000506EBC5000121005D21
:101C800000F0CAF86D1CEDB2802DF5D3641CE4B2EF
:101C9000082CE1D370BD00009C0100202DE9FF4F0E
:101CA000203A1F460C46894602F0FF0A0025DDF85F
:101CB00034B032E00C2F09D01A4901EB0A104FF072
:101CC0000008465D300607D55A4609E016490AEB7A
:101CD0004A0001EB8000F2E7BBF1000F12D00022B6
:101CE00021460098FFF7E2FE7006641C060EE4B27F
:101CF000A4EB0900B84207D100984C46401CC0B282
:101D0000009008E00122EBE708F1010000F0FF0875
:101D1000B8F1080FD6D36D1CEDB2BD42CAD3BDE8F1
:101D2000FF8F0000226D0008AE68000870B5054600
:101D30000C461046FEF764FD02460B4605A1074817
:101D400000F024FD21462846BDE87040034A00F01B
:101D500043B8000025372E336600000094000020B1
:101D60002DE9FF4F81B00026DDF838A01D469346CF
:101D7000814634464FF001084FEA5A0727E0281BF6
:101D8000401EC1B20A2003F0CBFBBBFBF0F00A21DE
:101D9000B0FBF1F201FB120026B9691E8C4201DA98
:101DA00048B101263030C2B207FB0490C0B253469E
:101DB000CDF8008006E007FB0490C0B25346202215
:101DC000CDF800800299FFF769FF641CE4B2AC42D1
:101DD000D5D305B0BDE8F08FF8B516460D460446DC
:101DE000012714E07A2C02D900241035EDB23A2DE7
:101DF00003D900242546FFF733FE009732780C23E1
:101E000029462046FFF74AFF0834E4B2761C3078B2
:101E10000028E7D1F8BD00002DE9F041154F00255D
:101E20000646012411B1C7F8A44101E0C7F8A45146
:101E3000DFF8448040214046FFF779F90F49002040
:101E4000C1F8BC51320602D5C1F8B84101E0C1F871
:101E5000B851C1F8BC417206401C160EC0B2082829
:101E6000EED340214046FFF764F9C7F8A441BDE82E
:101E7000F081000000802142001401400000224255
:101E800070470000044A0029916901D0014300E035
:101E900081439161704700000010024030B51F4936
:101EA0004A6812F00C031E4A03D0042B01D0082B01
:101EB00021D002604A680F231A4C03EA1212A35C75
:101EC0000268DA4042604B68072505EA1323E35CA9
:101ED00022FA03F383604B6805EAD323E35CDA401C
:101EE000C2604968032303EA9131231F595CB2FBA6
:101EF000F1F1016130BD4A684B6802F470124FF095
:101F0000020413F4803F04EB924202D04B689B031F
:101F100001D5054B00E0024B5A43CAE700100240CE
:101F200000127A005000002000093D002DE9F04128
:101F300088B0294C07A8CDE9004004F11E0106AB8A
:101F400002AA881F01F006FE2088C00540D502982D
:101F5000FEF7DEFB6FF01D063146FEF72EFA8046D7
:101F600060600398FEF7D4FB3146FEF726FA074679
:101F7000A0600498FEF7CCFB3146FEF71EFA05463A
:101F8000E0600598FEF7C4FB3146FEF716FA0646F8
:101F9000206101214046FEF710FA2946FEF79DF91F
:101FA00005464FF040413846FEF797F93146FEF7B7
:101FB00094F92946FEF739F9FEF722FC01F01AF9E7
:101FC0004FF06632054BFEF7ABFAFEF72CFC606172
:101FD00008B0BDE8F08100009C00002066A64C40DF
:101FE000704700000CB5002126480191009102685D
:101FF00042F4803202604FF4A063026802F40032BF
:102000000092019A521C0192009A12B9019A9A42C6
:10201000F3D10268920333D5012100911A490A686D
:1020200042F010020A600A6822F003020A600A689D
:1020300042F002020A6041684160416841604168C3
:1020400041F480614160416821F47C114160416844
:1020500041F4E8114160016841F08071016001685C
:102060008901FCD5416821F003014160416841F0DC
:10207000020141604168C1F381010229FAD10CBD1E
:1020800000910CBD00100240002002402DE9F041FB
:1020900000250126114C0F46002804DAC4F8BC6163
:1020A000C4F8B85103E0C4F8BC51C4F8B86103F0F7
:1020B00033FA0B490880002F04DAC4F8B451C4F88D
:1020C000B06103E0C4F8B461C4F8B051384603F01D
:1020D00023FA0349091F0880BDE8F08100802142EE
:1020E00040040040704700000F4810B5016841F0FF
:1020F0000101016041680D4A1140416001680C4ACC
:1021000011400160016821F480210160416821F4DF
:10211000FE0141604FF41F018160FFF763FF054935
:102120004FF00060086010BD001002400000FFF892
:10213000FFFFF6FE08ED00E02DE9F041224801889E
:10214000C9073FD0018821F00101018003F0E2FAC4
:102150001420FFF781FBFFF7B9F8642002F020FBA1
:102160001A480078FFF702F819481A4D01682868E4
:1021700001F048FB184C194E194FE062316838687D
:1021800003F0E8FC2063174831680268386803F000
:1021900085FB6063D4E90B121144134C0A1A134EE9
:1021A00008442260306000F08DFA11480168286808
:1021B00000F056F8002805D131682068BDE8F041EC
:1021C000FFF764BFBDE8F081102C01400000002043
:1021D00008000020040000204C0100203C000020EA
:1021E000380000200C0000204000002044000020A7
:1021F000480000204FF08040018A018A21F001014F
:102200000182704703480188018821F001010180A3
:1022100070470000100800400F4A936943F40063C0
:1022200093610E4A1080101F01800C4820380188ED
:1022300041F001010180018841F04001018007481F
:102240002C38018841F0010101800123192203216A
:102250001846FFF757BB0000001002402C2C01402D
:102260000E4988420CD80E49884209DC0D48007896
:10227000012805D00C4840F25641006888420BDA2C
:102280000A4A01200021C2F8B811C2F8BC11C2F8F4
:10229000B411C2F8B011704700207047000020C28E
:1022A0000000204210000020480000200080214251
:1022B00010B540F22551094800F075F900280BD0FF
:1022C00003F03CFCA52807D103F038FC5A2803D1C1
:1022D000BDE8104003F032BC10BD000000380140E2
:1022E0002DE9F05F8748008880067DD58548001D70
:1022F0000188854800242429416076D002780D2A7F
:10230000FBD0814B02780C339954521C0270232964
:102310006AD11978242967D18346047002227BA1EF
:102320009946581CFDF772FF794D7A4E7A4FDFF8C7
:10233000EC8100287ED0022279A1CA4609F1010071
:10234000FDF764FF4FF00109002874D0022275A147
:102350000AF10100FDF75AFF00286DD0022272A198
:102360000AF10100FDF752FF002866D002226FA19A
:102370000AF10100FDF74AFF00287AD054460222F4
:102380006BA1601CFDF742FF002873D0022269A1F7
:10239000601CFDF73BFF00286DD06078532877D193
:1023A0002079654930384843617940F271225143C0
:1023B00000EB0110A17901EB4102C2EBC11100EB6E
:1023C000C100E17901EBC10202EB011100EB8100D8
:1023D000217A01EB810100EB4100617A0844574901
:1023E0000844FEF795F901E052E046E05449FDF754
:1023F000A6FFCBF808005D46022252A1A01CFDF703
:1024000005FF002866D002224FA1A01CFDF7FEFEAA
:10241000002862D002224DA1A01CFDF7F7FE58B3A0
:1024200002224BA1A01CFDF7F1FE98B3022249A1A4
:10243000A01C03E023E024E02EE031E0FDF7E6FEFF
:1024400048B3022244A1A01CFDF7E0FE98B302228B
:1024500042A1A01CFDF7DAFE70B3022240A1A01C2D
:10246000FDF7D4FE002813D1A868FEF77DF93D4999
:1024700035E01AE021E025E033E0047041E72C70FC
:1024800001E085F80090347087F8004088F800403B
:10249000BDE8F09F28E02AE02C7086F80090F3E772
:1024A0002C70347087F80090F0E72C7034703C701A
:1024B00088F80090ECE71FE021E02B48017881F0DC
:1024C000010103E02948017811B100210170DFE723
:1024D0000121FBE72649A86801E02649A8680860B1
:1024E000D6E72549A868FAE72449A868F7E7A86865
:1024F000FEF73AF92249F2E72249A868EFE72249B4
:10250000A868ECE700480040CC00002043350000FC
:102510003400002035000020360000203700002065
:1025200043320000433800004334000043360000CB
:10253000434C000043530000A0860100B0DCF7FFCD
:1025400000007A444250000042440000565000000F
:1025500056490000565600005450000054440000F4
:102560005456000030000020010000201000002020
:1025700014000020180000201C0000202000002073
:102580002C0000202400002028000020C9430180E6
:1025900070470029818902D041F4005101E021F403
:1025A00000518181704730B501F01F0201240025E0
:1025B000C1F3421304FA02F2012B0FD0022B0FD009
:1025C000838A4FEA11210088134204FA01F400EAD9
:1025D000040001D000B10125284630BD8389F0E711
:1025E000038AEEE710B5C1F3421301F01F04012185
:1025F000A140012B07D0022B07D01430002A02681B
:1026000005D00A4304E00C30F8E71030F6E78A43BF
:10261000026010BD30B50446008A85B00D464CF608
:10262000FF710840E98801432182A1894EF6F31029
:102630000140A8882A8910436A890A431043A0816F
:10264000A08A4FF6FF410840A9890143A18268464C
:10265000FFF724FC1948844201D1039800E0029856
:10266000A189090400EBC00101EB0010296801D524
:10267000490000E08900B0FBF1F06422B0FBF2F108
:1026800009010B096FF018056B4300EB8300A38968
:102690001D044FF0320306D503EBC000B0FBF2F08F
:1026A00000F0070005E003EB0010B0FBF2F000F0D3
:1026B0000F000843208105B030BD00000038014004
:1026C000FEE700000A4940F6AC5042420B689342D4
:1026D00001DA0A6002E0834200DD086005490B6808
:1026E000934201DA0A6070478342FCDD086070475C
:1026F00040000020440000202DE9F04180460846BB
:10270000FEF77EF8164A174BFDF70AFF164D0646F0
:102710000C46A869FEF774F832462346FDF759FEC9
:102720000C46696807460E464FF07E50FDF7CFFD18
:10273000FEF766F83A462346FDF7F2FE07460C46DA
:1027400031464046FDF7C9FDFEF75AF83A462346A2
:10275000FDF73FFEFEF767F8A861BDE8F0810000D5
:102760007B14AE47E17A743FEC0000200FB4054BB8
:1027700010B503A9044A029800F060F910BC5DF896
:1027800014FB0000E9410008840100200FB4084B4D
:1027900010B504A902AA039800F050F9044602A952
:1027A000002000F0E2FC204610BC5DF814FB0000A5
:1027B0006B310008490050EAC12018BF04204A0DBF
:1027C00018BF40F0010040F2FF72B2EB515F08BF4A
:1027D00040F00200012808BF052070472DE9F041B4
:1027E0004F1E00EBC7010446D1E9000115461E4605
:1027F00037F006020DD02A463346FDF791FE7F1EC4
:1028000004EBC703D3E90023FDF7E3FD37F006022D
:10281000F1D1022F25D0042F13D0062F18BFBDE809
:10282000F0812A463346FDF77BFED4E90A23FDF703
:10283000D0FD2A463346FDF773FED4E90823FDF7A1
:10284000C8FD2A463346FDF76BFED4E90623FDF7A3
:10285000C0FD2A463346FDF763FED4E90423FDF7A5
:10286000B8FD2A463346FDF75BFED4E90223FDF7A7
:10287000B0FD2A463346FDF753FED4E90023BDE8F8
:10288000F041FDF7A6BD0122FDF72BBFFDF7A1BD6D
:102890000022134610461146FDF7B4BE024A00203E
:1028A0001107FDF71EBF000001FDFFFF02E008C891
:1028B000121F08C1002AFAD170477047002001E0BA
:1028C00001C1121F002AFBD17047000001490860B6
:1028D00070470000880100202DE9FF5FDDE902203C
:1028E000010DDDF838B0024318D044F61050A1F2C3
:1028F000FF3141430D140F98012820D0A5EB0B00A8
:10290000401C5FEA000A4FF00004474EDFF81C91BC
:10291000A046504616D5CAF1000728E00F980124BA
:1029200043A2012808D0002100980F9BC0E9002194
:10293000C0E90243BDE8FF9F6FEA0B01F4E7CBF16A
:102940000000DEE7074612E0F80707D022463346CC
:1029500040464946FDF7E4FD804689462246334617
:1029600010461946FDF7DCFD04460E467F10002F89
:10297000EAD1DDE90201BAF1000F42464B4602DA24
:10298000FDF7CEFD01E0FDF73DFE04460E460022B8
:10299000284BFEF789F803D84FF0FF30014607E0D7
:1029A0000022254B20463146FDF713FDFEF763F864
:1029B000102409E0002C0ADB0A220023FDF765FF42
:1029C000019B30321A55641E50EA0102F2D1641C98
:1029D000019AC4F1110314440F9A012A03D0012271
:1029E00008430DD10AE0084304D000204FF0110B3A
:1029F0000F9080E7A3EB0B056D1E0DE05B4504DD3A
:102A00004FF0000205F1010504E003DA4FF0000287
:102A1000A5F10105002AECD000980F99C0E9023118
:102A2000C0E9004586E70000000024400000F03FB8
:102A3000300000000000F0430000E03F2DE9FF4FB0
:102A400095B09B468946064600250FE2252877D19A
:102A500000242746F84A0121059400E0044316F8B3
:102A6000013F203B01FA03F01042F7D130782A28C9
:102A700011D06FF02F033078A0F13002092A16D858
:102A8000059A44F0020402EB820203EB4202104476
:102A9000761C0590EFE759F8042B0592002A03DA1B
:102AA000504244F40054059044F00204761C3078FF
:102AB0002E2816D116F8010F44F004042A280DD050
:102AC0006FF02F023078A0F13003092B09D807EB03
:102AD000870302EB4303C718761CF3E759F8047B1E
:102AE000761C30786C280FD006DC4C2817D068286C
:102AF0000DD06A2814D104E0742810D07A280FD1A0
:102B00000DE044F400140AE044F4801401E044F4BD
:102B100040147278824202D104F58014761C761C2F
:102B2000307866280BD013DC582877D009DC0028D1
:102B300075D04528F6D04628F4D047281AD19DE113
:102B400018E0632835D0642879D0652812D195E142
:102B5000702873D008DC6728F1D069286FD06E2800
:102B60000DD06F2806D1B5E073282CD0752875D00C
:102B7000782874D05A46179990476D1C75E1C4F3B4
:102B80000250022809D003280DD0D9F800100428DB
:102B90000DD00D6009F1040967E1D9F80010EA17BA
:102BA000C1E90052F6E7D9F800100D80F2E70D7088
:102BB000F0E719F8041B8DF8001000208DF80100D3
:102BC000EA46012003E059F804AB4FF0FF306107FB
:102BD0004FF0000102D40DE008F101018846B9422E
:102BE0000FDA8045F8DB1AF808100029F4D108E064
:102BF00008F1010188468142FADB1AF80810002921
:102C0000F6D105985B46A0EB080721463846179A8F
:102C100000F094FA284400EB080507E04DE029E1B4
:102C20000DE01AF8010B5A4617999047B8F10108C0
:102C3000F7D25B4621463846179A13E142E00A2252
:102C40000092C4F302524FF0000A022A08D059F849
:102C500004CB032A4FEAEC710AD00DE029E02AE008
:102C600009F1070121F00702F2E802C1914609E0EB
:102C70000FFA8CFC4FEAEC71042A03D14FFA8CFC5A
:102C80004FEAEC71002907DA0A460021DCF1000C5A
:102C900061EB02012D2202E0220504D52B228DF8E2
:102CA0000420012203E0E20701D02022F7E790464A
:102CB00059E00A2102E010220DE010214FF0000A35
:102CC00000910BE010224FF0000A44F004040827A2
:102CD000009203E008224FF0000A0092C4F302526F
:102CE000022A05D059F804CB0021032A08D009E0B4
:102CF00009F1070121F00702F2E802C1914605E05F
:102D00001FFA8CFC042A01D10CF0FF0C4FF00008D4
:102D1000220728D5702806D0009B83F0100353EAC1
:102D20000A0305D00EE040228DF80420012208E0BD
:102D30005CEA010206D030228DF804208DF80500EF
:102D400002229046009B83F0080353EA0A030AD14B
:102D50005CEA010201D1620705D530228DF804201A
:102D60004FF001087F1E582804D034A003900EA80D
:102D700002900DE036A0F9E753466046009AFDF751
:102D800084FD84460398825C0298401E0290027083
:102D90005CEA0100F0D1029806A9081A00F1200AA5
:102DA000600702D524F4803400E00127574502DD96
:102DB000A7EB0A0000E0002000EB0A010090059854
:102DC0004144401A0590E00306D45B462146179A19
:102DD000059800F0B3F90544002706E001A85A461B
:102DE000C05D179990476D1C7F1C4745F6DBE003DB
:102DF0000CD55B462146179A059800F09FF90544CB
:102E000004E030205A46179990476D1C0099481EDF
:102E100000900029F5DC08E0029802995A460078F3
:102E2000491C0291179990476D1CBAF10001AAF153
:102E3000010AF1DC65E1000009280100303132337C
:102E400034353637383961626364656600000000E6
:102E500030313233343536373839414243444546D0
:102E60000000000000F058F90544761C3078002876
:102E70007FF4ECAD19B02846BDE8F08F620700D4AE
:102E8000062709F1070222F0070CFCE80223E146BD
:102E900003F000485FEA080C02D00FF2702C0DE03E
:102EA0005FEA045C02D50FF2682C07E05FEAC47C9D
:102EB00002D00FF2602C01E0AFF2700C4FF0FF383F
:102EC00023F00043CDF850C065280CD006DC45281F
:102ED00009D046281DD047283DD13DE0662818D0AE
:102EE00067287ED138E00021112F01DB112000E09E
:102EF000781CCDE9000106A90EA8FFF7EDFCDDE97D
:102F00000F010E9A03910021009207F1010A04912A
:102F10004DE04FF000400097CDE9011006A90EA842
:102F2000FFF7DAFCDDE90F0203920E9B11990022F4
:102F3000DDF80CA00093049211B9791C00EB010A92
:102F4000B7EB0A0004D4C0F1FF3007F1010A049086
:102F5000AAEB0700019044E0012F00DA01270021CD
:102F6000112F01DD112000E03846CDE9000106A94E
:102F70000EA8FFF7B1FCDDE90F010E9A03910021C5
:102F800004910092BA4621070CD40399514500DA06
:102F90008A46BAF1010F05DD009AAAF10101515CE0
:102FA000302908D0B84202DA10F1040F06DA012104
:102FB000CDE9011015E0AAF10101E9E7002805DCDF
:102FC000049901440491AAEB000102E0411C51451F
:102FD00000DD8A460499401A401C01904FF00040E1
:102FE0000290200704D40198504501DBCDF80480FD
:102FF00000208DF84F0002980DF14F07B0F1004FFF
:1030000025D02B200E9002984FF0020800280CDAF1
:10301000404202902D200E9007E00A210298FDF711
:103020001EFC3031029007F8011DB8F10001A8F133
:103030000108F2DC02980028EFD1791E0E98087082
:10304000307800F0200040F0450007F8020D12A88B
:10305000C01B00F107081498007800B1012000EBB4
:103060000A01019801EBE07105984144401A401EA5
:103070000590E00306D45B462146179A059800F0B8
:103080005DF805441498007818B15A46179990478E
:103090006D1CE00324D55B462146179A059800F085
:1030A0004DF805441CE00498002807DBDDE9030126
:1030B000884203DD0098405C179901E017993020A1
:1030C0005A469047049805F10105401C0490019868
:1030D000401E019004D12E205A46179990476D1C2E
:1030E000BAF10001AAF1010ADDDC05E017F8010BD5
:1030F0005A46179990476D1CB8F10001A8F10108D4
:10310000F4DC5B462146179A0598ABE62D000000DB
:103110002B000000200000002DE9F04104460025AE
:103120001E461746880404D405E039462020B047DF
:103130006D1C641EF9D52846BDE8F0812DE9F041EB
:10314000044600251E469046C80301D5302700E0FE
:103150002027880404D505E041463846B0476D1C59
:10316000641EF9D52846BDE8F0810A68531C0B603F
:10317000107070472DE9FE4F07460E460025684641
:1031800001F03CF800246FF00F0AE8464FF0010907
:1031900057F8240056F82410401A00D54042FDF795
:1031A000B7FA5146FDF709F958F8241011F0FF4F0E
:1031B0000BD0FDF7C4F84FF07E51FDF788F80A49AF
:1031C00020F00040884205DC07E00849084408492F
:1031D000884202D309FA04F00543641C032CD7DBB0
:1031E0002846BDE8FE8F0000295C0F3E666666C17A
:1031F0009A99D9002DE9F04D8D4F21F0004A86B003
:1032000005460C46BA452ADBAAEB070028430AD03C
:103210008848824501DC1AD1CDB106B02846BDE808
:10322000F04DFFF730BB844A844B2846FDF778F910
:1032300007460E46824A834B28462146FDF770F921
:1032400006B03A463346BDE8F04DFDF7C2B801205E
:10325000FFF73CFB06B0BDE8F04DFFF719BB7A481D
:10326000824542DABAF1795F0BDA2846FFF7A2FA13
:10327000042808BFFFF712FB284606B02146BDE828
:10328000F08D2A460B461046FDF74AF98346024662
:103290006E480E460B4606217844FFF79FFA5A46C1
:1032A0003346FDF73DF9804669488A465A4633461B
:1032B00004217844FFF792FA5A463346FDF730F975
:1032C00000223B46FDF785F802460B464046514634
:1032D000FDF798F92A462346FDF722F906B02A465B
:1032E0002346BDE8F04DFDF774B8284624F00041B0
:1032F00000223D463B46FDF710F94FF0FF32FDF747
:10330000F0F90646024653480F460B46062178441C
:10331000FFF764FA32463B46FDF702F9CDE90001BA
:103320004D4832463B4604217844FFF757FA32466F
:103330003B46FDF7F5F800222B46FDF74AF8834699
:1033400002913046394602F083FA804643480D46E2
:10335000504517DCDDE900015A46029BFDF752F9A2
:1033600042462B46FDF7DCF842462B46FDF731F886
:103370000122FDF7B6F9304A304BFDF7CBF8304A61
:10338000304B4CE04FF0000A52460B464046FDF7EA
:1033900020F8CDE9031052462B4610461946FDF79A
:1033A000BFF832463B46FDF7B8F8DDE90332FDF7DA
:1033B00029F906460F46DDE900015A46029BFDF752
:1033C00021F983460091012230463946FDF789F9FB
:1033D000194A1A4BFDF7A1F806460F46012240464E
:1033E0002946FDF77EF95A46009BFDF799F83246CB
:1033F0003B46FDF78FF806460F4601225046294608
:10340000FDF76FF90E4DDFF858802A464346FDF769
:1034100084F832463B46FDF780F82A464346FDF7DE
:103420007CF8002CD8BF81F0004106B0BDE8F08DDB
:103430000000F03F0000F07F075C143326A6913CAB
:10344000182D4454FB21F93F0000E03F7C40000070
:1034500092400000064000001C4000003333EF3F64
:10346000FB21E93F2DE9F84F04460D4621F00040CD
:1034700000917349814211DC7249884201DC06D116
:103480002CB120462946BDE8F84FFFF7FCB96E483D
:10349000002DCCBF6D496E49BDE8F88F6D49814262
:1034A00011DD6D498142D8BF4FF0FF366DDD2046FA
:1034B0002946FFF77FF9042808BFFFF7EFF92046F8
:1034C0002946BDE8F88F6549654F25F000458142E2
:1034D00033DD6449814219DD002632464FF08043D6
:1034E00020462946FCF775FF80468A460122204681
:1034F0002946FDF7F6F800223B46FDF70BF8424659
:103500005346FDF77FF804460D463EE001260022B3
:10351000BA463B4620462946FCF75BFF80460F46ED
:103520000022534620462946FCF7F4FF42463B461C
:10353000FDF768F804460D4627E04B4981421BDD44
:10354000DFF828A102260022534620462946FCF730
:10355000E7FF00223B46FCF73CFF80460F46002277
:10356000534620462946FCF7D5FF42463B46FDF729
:1035700049F804460D4608E0032622462B46002063
:103580003B49FDF73FF804460D4622462B461046C0
:103590001946FCF7C5FF8B46824602460B46FCF7F0
:1035A000BFFF07460246334888460B46062178444B
:1035B000FFF714F952465B46FCF7B2FF82462E48ED
:1035C0008B463A46434605217844FFF707F93A46C9
:1035D0004346FCF7A5FF02460B46002E50465946CF
:1035E0000CDAFCF7F6FE22462B46FCF799FF01B0F9
:1035F00022462B46BDE8F04FFCF78FBFFCF7E9FEF3
:1036000022462B46FCF78CFF1C4A7A4402EBC60389
:10361000D3E90023FCF77EFF22462B46FCF77AFF16
:10362000174A7A4402EBC603D3E90023FCF775FF7F
:10363000009A002AB8BF81F00041BDE8F88F000071
:10364000000010440000F07F182D4454FB21F93F86
:10365000FB21F9BF0000DC3F0000203E0000F33FEB
:103660000000F03F0000E63F008003400000F83F0C
:103670000000F0BF1E3E0000DC3D00007A3D00006F
:10368000423D00002DE9F04D9446CCF1000423F0BA
:1036900000464CEA0404524F46EAD4749A468846DF
:1036A00021F00042BC4206D8454240EA050442EA05
:1036B000D474BC4204D9BDE8F04D6246FFF7E6B8C9
:1036C000AAF14055A5F17F6555EA0C040BD0022400
:1036D00004EAAA74434DDFF810E144EAD87452EAD0
:1036E000000B04D00CE0BDE8F04DFFF7BBBE002C92
:1036F00014BF012CBDE8F08D022C30D0032C32D049
:1037000056EA0C0B0AD0BE4220D1BA4209D126F0AB
:10371000804622F080423346114617E000291ADB2A
:1037200025E0DFF8C8B0FB44002C04BFDBE9000152
:10373000BDE8F08D012C02BFDBE9000181F0004102
:10374000BDE8F08D022C0AD0032C0CD0BA4212D165
:10375000B8F1000F0BDA23482549BDE8F08D284663
:103760002449BDE8F08D28467146BDE8F08D1D481E
:103770002149BDE8F08D921B12153C2AC4BF19489F
:103780001D490EDCBAF1000FBEBF12F13C0F002044
:10379000014606DB6246FCF735FF21F00041FFF7EA
:1037A00061FE002C08BFBDE8F08D012C04BF81F044
:1037B0000041BDE8F08D114A114B022C07D0FCF7F7
:1037C000A9FE2A46BDE8F04D0A4BFCF7A3BEFCF764
:1037D000A1FE2A46BDE8F04D064BFCF79EBE000058
:1037E0000000F07F182D4454FB2109C0D63C000096
:1037F000FB21F9BFFB210940FB21F93F075C143392
:1038000026A6A13C70B5044609480A460168104640
:10381000FCF763FD0546074801682046FCF75DFD9F
:103820002946FCF702FDBDE87040FCF79DBF000093
:1038300018000020140000204FF0E0210A6922F057
:1038400004020A610649C00800EB40020870C2EB9E
:10385000C0104FF6FF7202EAC000488070470000B7
:10386000640000200849498848434FF0E02148613E
:103870000020886101220A610A69D30701D0D203BE
:10388000FAD508618861704764000020084909780A
:1038900048434FF0E02148610020886101220A611D
:1038A0000A69D30701D0D203FAD50861886170474D
:1038B0006400002008B560B120208DF800002820A9
:1038C0008DF8010030208DF8020038208DF80300BB
:1038D00004E0A32204216846FCF779FC6A4604212F
:1038E00040F69E2001F0EEFD01F0B4FA08BD0000A4
:1038F0003EB5044602208DF80000CA208DF8010074
:10390000E3208DF8020009208DF803006A460421A7
:10391000682001F0D7FDA3208DF80000610609D5CD
:10392000C0218DF80110C8218DF80210C2218DF838
:10393000031005E08DF801008DF802008DF80300FA
:1039400014F4C07F09D0C4218DF80410CC218DF867
:103950000510C6218DF8061005E08DF804008DF8DD
:1039600005008DF806008DF808008DF807008DF829
:1039700009006A460A2140F6A72001F0A3FDA0072E
:103980004FF0D80503D020208DF8000001E08DF81D
:1039900000506A46012140F6B62001F093FDA006D2
:1039A00001D5012000E0002000F08EF814F4C07F63
:1039B0001ED0E0050AD5B2208DF800008B208DF8CE
:1039C0000100B6208DF802009B2009E0B0208DF8A0
:1039D000000080208DF80100B4208DF802009020B6
:1039E0008DF803006A46042140F6A22001F06AFD2A
:1039F000E1074FF40B6022D0F8218DF800106A46E1
:103A0000012101F05FFDFA21072000F039FB0720BA
:103A100000F004FB012000F021FB642000F0C4FB57
:103A20004FF4FA7000F0D0FBC821254800F0BEFA30
:103A3000282000F0D3FA0A2000F0E0FA05E08DF823
:103A400000506A46012101F03DFDA00703D5D920B1
:103A50008DF8000001E08DF800506A46012140F227
:103A60003D7001F02FFD600701D5012000E000202E
:103A700000F048F8E00601D5012000E00020FFF743
:103A800019FF104D44F00800688101F0E3F90020AF
:103A9000A873600601D50620A87314F4C07F02D075
:103AA000A87B801DA87314F0140F02D0A87B1030DF
:103AB000A873A00702D0A87B001DA87300203EBDFC
:103AC00009E3CA028C0100200EB54FF4976310B1D0
:103AD00006A107C901E008A207CA8DE807006A46E7
:103AE0000921184601F0EEFC0EBD0000B8AAB38D06
:103AF000B4980D355D000000B8AAAAAAB088C3C565
:103B0000C700000008B560B1C0208DF80000C220D9
:103B10008DF80100C4208DF80200C6208DF8030046
:103B200004E08B2204216846FCF751FB6A4604211D
:103B300040F6982001F0C6FC01F08CF908BD0000A9
:103B4000C8234FF48062024940F6F63001F064B8B1
:103B5000B85C00082DE9FF4F89B01746DDE9165221
:103B600000244C4E884681462C80A246B07B694694
:103B700001F0FEF84FF0FF3B18B158460DB0BDE81C
:103B8000F08F708910F0140F3CD0009909BA21F021
:103B9000FF039DF803100B433B6001991B1409BA06
:103BA00021F0FF029DF807105B430A437A600299F7
:103BB0009DF80B4009BA21F0FF012143B960039C35
:103BC000091424BA24F0FF0C9DF80F4012144CEA9B
:103BD000040CC7F80CC04FEA2C47494302FB0232E1
:103BE00007FB071111441024A1F17061B1F1007FAE
:103BF00004D901F02FF9A5F800A0BEE7298841F407
:103C0000807129804206694611D50A19A41D1388BE
:103C10005BBAA8F8003053885BBAA8F802309288E3
:103C200052BAA8F804202A8842F008022A8010F428
:103C3000C07F11D00A19A41D13885BBAA9F80030FF
:103C400053885BBAA9F80230928852BAA9F80420C6
:103C50002A8842F070022A80800716D00C44E0784F
:103C600000F0C00500F03F016078C00706D0C8082A
:103C700001F007013268491C02B1904760780007E3
:103C800003D5716809B1A80988470C9800F00CFBAE
:103C9000002073E78C0100202DE9FF41044603A8B2
:103CA00000F070FEBDF80C00410CC3032F480289E0
:103CB00002F00300550754F8200000D54042C2F33B
:103CC000C105960654F8255000D56D42C2F3811601
:103CD000D20554F8264000D56442A0FB0367C21702
:103CE00002FB037200FB0120820042EA9670A5FBF2
:103CF0000367EA1702FB037205FB0122950045EA00
:103D00009672A4FB0367E51705FB037304FB0131FF
:103D10008B0043EA9671030E8DF80030030C8DF88A
:103D20000130030A8DF802308DF80300100E8DF873
:103D30000400100C8DF80500100A8DF80600080E1E
:103D40008DF80800080C8DF80900080A8DF80A00A3
:103D50008DF807208DF80B106A460C214FF4257062
:103D600001F0B0FB04B0BDE8F08100008C01002040
:103D700030B5044613A285B007CA8DE807004FF09E
:103D8000FF35C82C16D8C820B0FBF4F1491E080A2C
:103D90008DF80C008DF80D1003AA022140F21620B8
:103DA00001F090FB30B96A460C2140F6C12001F0C9
:103DB00089FB10B1284605B030BD0548848100203C
:103DC000F9E70000FEF2ABC4AAF1DFDFBBAFDFDF33
:103DD0008C010020F8B53049098901F0030250F840
:103DE00022404A0700D56442C1F3C1028B0650F855
:103DF000222000D55242C1F3811350F82330C80568
:103E000000D55B42254984FB0140850045EA94705A
:103E100082FB0142A40F44EA820483FB0121950F37
:103E200045EA8105010E8DF80010010C8DF8011096
:103E3000010A8DF802108DF803006A4604214FF440
:103E4000747001F03FFB4FF0FF3688B9200E8DF8FB
:103E50000000200C8DF80100200A8DF802008DF87A
:103E600003406A4604214FF4757001F02BFB08B142
:103E70003046F8BD280E8DF80000280C8DF80100A2
:103E8000280A8DF802008DF803506A4604214FF489
:103E9000767001F017FBF8BD8C01002009E3CA021F
:103EA0002DE9FF4104463CA004F0030300680290A2
:103EB0003AA0006803903AA006683AA0056802A8F4
:103EC000C15C8DF80010C4F3C101425C8DF8012083
:103ED000C4F38112805C8DF8020003A8C35C8DF8E6
:103EE0000430415C8DF80510805C8DF806006A4650
:103EF000032140F2264001F0E5FA4FF0FF37E0BB26
:103F000001AA032140F22A4001F0DCFAA8BBCDE966
:103F1000006560070BD59DF8000040F001008DF8AA
:103F200000009DF8040040F001008DF80400A00698
:103F30000BD59DF8010040F001008DF801009DF8BF
:103F4000050040F001008DF80500E0050BD59DF857
:103F5000020040F001008DF802009DF8060040F0DC
:103F600001008DF806006A4603214FF4886001F0D5
:103F7000A9FA10B901AA032100E004E040F231409F
:103F800001F0A0FA18B1384604B0BDE8F081064847
:103F900004810020F8E700004CCD6C000CC92C0017
:103FA00036567600264666008C0100204FF47A7261
:103FB00090FBF2F008B54843010E8DF80010010C9B
:103FC0008DF80110010A8DF802108DF803006A4681
:103FD00004214FF4AE7001F075FA08BD0521B0FB65
:103FE000F1F008B5010A8DF800108DF801006A465D
:103FF00002214FF4AD7001F065FA08BD0521B0FB58
:10400000F1F008B5010A8DF800108DF801006A463C
:1040100002214FF4AC7001F055FA08BD08B500213B
:104020008DF80010C10702D030218DF800108107F3
:1040300005D59DF8001041F00C018DF800104007E7
:1040400005D59DF8000040F003008DF800006A4699
:1040500001214FF4A47001F035FA08BD08B560B134
:10406000042800D90420401E8DF800006A46012172
:1040700040F24F1001F026FA08BD0120F3E70000DE
:104080002DE9FC41054640074FF0FF367CD0B1F5E5
:10409000C86F79D80846FCF744FB3E49FCF74FF956
:1040A000074601A800F050FC9DF80400022806D045
:1040B00004280DD008282ED0102865D134E00E2118
:1040C0003846FCF77AF9FCF768FB84B2324907E01E
:1040D0000D213846FCF771F9FCF75FFB2F4984B2DC
:1040E0003846FCF7FAF8FCF758FB210A8DF8001067
:1040F00080B28DF80140010A8DF802108DF803009E
:10410000E8076C4620D0224602214FF4EA7001F005
:10411000D9F9C8BB11E00C213846FCF74EF9FCF781
:104120003CFB84B21E49DBE70B213846FCF745F91E
:10413000FCF733FB84B21B49D2E7A21C02214FF4E7
:10414000927001F0BFF9F8B9A8070DD56A460221AF
:104150004FF4EC7001F0B6F9B0B9A21C02214FF493
:10416000947001F0AFF978B9680710D56A4602215A
:104170004FF4EE7001F0A6F930B9A21C02214FF401
:10418000967001F09FF910B13046BDE8FC81002027
:10419000FBE7000000004843000040460000C04527
:1041A000000040450000C0440521B0FBF1F008B517
:1041B000010A8DF800108DF801006A4602214FF4C3
:1041C000EF7001F07FF908BD0521B0FBF1F008B5F3
:1041D000010A8DF800108DF801006A4602214FF4A3
:1041E000ED7001F06FF908BD034AC1B21180111FD3
:1041F0000A885206FCD57047043801402DE9FE4379
:104200000646264801AB042240680D21007800F0E4
:1042100041FA10B10720BDE8FE839DF804101C2070
:1042200000EAD1029DF80710DFF87490C1F3011382
:104230001A438DF800209DF80520C1F3810300EAA0
:10424000D2021A438DF801209DF8062001F00301E7
:1042500000EAD20008430024124F8DF80200A04665
:104260006D46285D10B146F824900AE046F8248097
:104270000DE000BF56F824003946FCF72EF846F84A
:104280002400285D401E10F0FF002855F2D1641C68
:10429000E4B2032CE5D30020BDE700006800002055
:1042A0007B14AE3E1D5A843F704700002DE9FE4F3F
:1042B00005460120C14E8DF800004FF000088DF832
:1042C000018030680C461746817C70686B4602227C
:1042D000007800F017FA4FF0FF3A00287AD1C82092
:1042E000FFF7C0FA8DF8008030686B460122C17B71
:1042F0007068007800F006FA0028EFD130686B464D
:10430000012241797068007800F0FCF90028E5D1BD
:1043100030686B460122817C7068007800F0F2F909
:104320000028DBD130686B460122C17D70680078BF
:1043300000F0E8F90028D1D130686B4601220179FC
:104340007068007800F0DEF90028C7D14FF00C0942
:104350008DF8009030686B46012201797068007812
:1043600000F0D0F9002835D10F20FFF77BFAB06AB2
:104370006B460122407A8DF80000306881787068C1
:10438000007800F0BFF9002824D1B06A6B46012202
:10439000007A8DF80000306841787068007800F08D
:1043A000B1F9002873D1B06A807A0FB140F0E00013
:1043B0008DF8000030686B460122817970680078C2
:1043C00000F0A0F9002862D12FB1B06AC07A40F0A5
:1043D000E00001E04AE018208DF8000030686B46EC
:1043E0000122C1797068007800F08CF9F0BB17B138
:1043F000C820FFF737FA40208DF8000030686B4680
:10440000012201797068007800F07CF970BB782097
:104410008DF8000030686B460122417970680078A1
:1044200000F070F910BB3220FFF71CFA8DF8008005
:10443000306847466B46417970680122007800F089
:1044400061F998B931687068B046897A00786B462E
:10445000022200F01FF948B9BDF80000AF6040BA71
:10446000B0FBF9F06F60C6B22F6000E00FE0A7600C
:1044700067602760002739E0D8F80010D8F80400FA
:104480006B46C97A00780C2200F004F910B150464E
:10449000BDE8FE8FBDF80000236840BA02B2BDF847
:1044A0000200BDF804101A44226040BA626800B2EB
:1044B0001044606049BAA06809B20844A060BDF821
:1044C00006002B6840BA02B2BDF808001A4440BA90
:1044D00001B2BDF80A002A606A6840BA11446960F6
:1044E000A96800B208447F1CFFB2A860B742C3D3DA
:1044F00028688322C117090441EA104100040023FF
:10450000FBF734FE32460023FBF730FE2860686874
:104510008322C117090441EA104100040023FBF77C
:1045200025FE32460023FBF721FE6860A86883223F
:10453000C117090441EA104100040023FBF716FEED
:1045400032460023FBF712FEA86020684FF4006596
:10455000C117090441EA104100042A460023FBF771
:1045600005FE32460023FBF701FE206060682A4604
:10457000C117090441EA104100040023FBF7F6FDCE
:1045800032460023FBF7F2FD6060A0682A46C1179F
:10459000090441EA104100040023FBF7E7FD32461D
:1045A0000023FBF7E3FDA060002802DDA0F58030CA
:1045B00001E000F58030A060002069E7680000207D
:1045C0002DE9F84F81462E488846002540686B4605
:1045D000032200780D2100F05DF810B10720BDE83E
:1045E000F88F9DF80000002400F01F008DF80000F7
:1045F0009DF801006FF00F0B00F01F008DF8010017
:104600009DF802006E4600F01F008DF802004FF08A
:10461000010A00BF59F8241058F82400081A00D5E0
:104620004042FCF775F85946FBF7C7FE0746305D78
:10463000C0B1144802E01449FBF74FFE315D491E3A
:1046400011F0FF013155F6D101463846FBF777FEF0
:104650004FF07E51FBF73BFE0C4920F000408842B2
:1046600005DC07E00A483844B0F1D97F02D90AFADC
:1046700004F00543641C032CCCDB2846AFE70000A4
:10468000680000200000C84154E3853F295C0F3ECC
:104690000000E0BE2DE9F0411D4614460F460646D7
:1046A000FCF71AFFB0B17006000EFCF7E5FEFCF750
:1046B0005BFF90B13846FCF7DFFEFCF755FFFCF7D7
:1046C0000BFF012000EB4600C0B2FCF7D5FEFCF763
:1046D0004BFF0FE00120BDE8F081FCF725FFF9E773
:1046E000012C0DD05FF00100FCF790FE641E05F870
:1046F000010BE4B2002CF3D1FCF716FF0020EAE72F
:104700000020F1E72DE9F0411E4615460F4604460C
:10471000FCF7E2FE68B16006000EFCF7ADFEFCF7A8
:1047200023FF48B13846FCF7A7FEFCF71DFF002425
:104730000CE00120BDE8F081FCF7F6FEF9E7305D02
:10474000FCF79AFEFCF710FF10B1641CAC42F6DBDC
:10475000FCF7EAFE0020EDE790F90010002902DDE9
:104760004FF00000704702DA4FF00400704790F9F4
:104770000110002902DD4FF00100704702DA4FF00E
:104780000500704790F90200002802DD4FF002009A
:10479000704702DA4FF0060070474FF0070070478D
:1047A00030B51D4BD3F814211C490C7822434FF02F
:1047B000010400D10C704D78002285B90D78012DCF
:1047C00003D18D786D1C8D704C708C78022C06D1C5
:1047D000134C257845B1002525708A708A80D3F85E
:1047E0001431012B02D003E00125F5E70A704A706D
:1047F0008B78012B0CD18B885B1C9BB28B80834206
:1048000006D90848037823B1002303708A708A8090
:1048100030BD0123F9E7000000802142E6000020BE
:1048200001000020100000200748816941F00801C4
:1048300081610648016821F00F010160016841F0C3
:10484000030101607047000000100240040C0140A9
:10485000FDF74AFC4820FEF7EFFF01F019F94FF48D
:104860001651482001F0B2F80220FCF71BFF01208E
:10487000FCF718FFFFF7D8FFFCF728FFFCF7BAF9A1
:10488000002140F60F60FDF76BF8FDF72DF9FCF7FE
:1048900039FBFCF7A1FBC820FEF7E4FFFCF780FD25
:1048A000FCF7EEFFFCF71CFA41F61F413120FDF743
:1048B000B3FC0D4E0D4D0E4C207801280DD1FDF7A7
:1048C00035FB30686060B5F90200FBF721FFA0609E
:1048D000B5F90400FBF71CFFE06060780128EBD11C
:1048E00000F026FEE8E70000B0000020B400002041
:1048F000000000202DE9F041124C20F001010025BC
:1049000094F8240010B10020BDE8F081A07A4FF0A7
:10491000FF3668B10840277C2074884200D03546B5
:1049200041B1012000F068FF00F094FA38B127741B
:104930003046E9E7207D00B1012000F05DFF284608
:10494000E2E70000680000200D494A7A42B1012ADE
:1049500008D0022A0FD0032A0FD04FF0FF30704743
:10496000022200E004220270C97C11B11106C90DB7
:104970000170002070470822F5E71022F3E70000DD
:10498000680000200F494A7A42B1012A09D0022A60
:1049900011D0032A12D04FF0FF3070474FF48042FD
:1049A00001E041F69C720280C97C11B1C2F34E0154
:1049B0000180002070474FF48052F4E74FF400620A
:1049C000F1E70000680000200B49097A39B101299C
:1049D00007D002290AD003290BD0002103E0FA21D5
:1049E00001E04FF4FA710180002070474FF47A71B2
:1049F000F9E74FF4FA61F6E7680000200A49097AFE
:104A000041B1012908D002290AD003290AD04FF068
:104A1000FF307047054900E00549016000207047FC
:104A20000449FAE70449F8E768000020000003435E
:104A30000000834233330342333383410C49C97A44
:104A4000072913D2DFE801F01204060A0C0E100049
:104A5000BC2100E062210180002070472A21FAE792
:104A60001421F8E70A21F6E70521F4E70021F2E72F
:104A700068000020054991F8242012B14FF0FF3062
:104A80007047C9890180002070470000680000203D
:104A90002DE9FC414C4C80208DF8000020686B46CD
:104AA0000122817C60680078FFF72CFE4FF0FF3711
:104AB000002832D16420FEF7D5FE00258DF8005085
:104AC00020686B460122817C60680078FFF71AFE3F
:104AD000002870D120686B460622817D60680078CE
:104AE000FFF7D8FD002866D19DF805009DF803105A
:104AF000C007400F01F0010140EA41019DF80100AB
:104B00004FF0010600F00100014309D0012905D052
:104B1000022915D02DA0FDF729FE4CE0E67410E027
:104B200020686B460122C17860680078FFF7B2FD0B
:104B300040BB9DF8000010F00F0020D0042822D0C8
:104B4000E574FF2004F80A0F4FF6FF7104F8020C19
:104B500004F8010C6070A180A0712072A670267606
:104B60006576E572A572E56025616561A576E576F5
:104B7000A5834FF4FA6000F06BFB18B907E01D48FD
:104B8000FDF7F4FD17E01CA0FDF7F0FDC6E70220DD
:104B900000F080FA78B92A2000F0C2FB58B9322020
:104BA00000F0F4FB38B90020FFF7A4FE18B900208C
:104BB00000F0A4FA10B13846BDE8FC81002000F0F6
:104BC00025FC0020F8E7000068000020556E737592
:104BD00070706F7274656420736F6674776172654C
:104BE0002070726F64756374207265762025642E60
:104BF0000A0000000874000848616C662073656E46
:104C00007369746976697479207061727420666F53
:104C1000756E642E0D0A00002DE9FF4FDFF89480B9
:104C2000064685B098F8250015460F464FF0FF3927
:104C3000B0BBAFB3002420E0301B102800DD1020F3
:104C400080B283463A1901469246204600F03AFC6B
:104C500030BB6A465946204600F0D2F800BB5046A9
:104C60005A466946FBF7C5FA20B16FF0010009B05A
:104C7000BDE8F08F04EB0B0084B2B442DCD3280A09
:104C80008DF810008DF81150D8F80000444604ABA0
:104C9000817ED8F8040002220078FFF733FD08B1C6
:104CA0004846E4E7012084F825000898E0840020C5
:104CB000DDE70000680000202DE9F84305464FF0CD
:104CC000FF39282844D80727284C00267DB1012029
:104CD00000F0F4FA20208DF800004FF00108012DBB
:104CE00017D0052D18D88DF8018005201FE0002071
:104CF00000F0E4FA8DF800608DF8017020686B46D2
:104D00000222817C60680078FFF7FCFC00BB2675FE
:104D100029E08DF80160E8E7142D04D802208DF811
:104D200001000A2003E003208DF80100142000F0A8
:104D3000F7FA9DF801006B4607EB80108DF8010033
:104D400020680222817C60680078FFF7DBFC10B1EC
:104D50004846BDE8F8830820A072267384F81480C2
:104D60000020FFF7C7FD0020F3E7000068000020E7
:104D70002DE9F843214C0646174694F8240089464D
:104D80004FF0FF3890B3A07A80B320686B460222C0
:104D9000817A60680078FFF77DFC38BBBDF80000C1
:104DA00045BAB54202D2002038701FE060684188E1
:104DB000B5EB510F11D9216800786B46497C01226F
:104DC000FFF768FC90B99DF80000C00605D500F01B
:104DD00041F86FF00100BDE8F8832068F2B24B465D
:104DE000C17A60680078FFF755FC08B14046F2E7E9
:104DF000B5FBF6F0401E38700020ECE7680000209C
:104E0000F8B516000D464FF0FF371FD0104CA17AB1
:104E1000E1B1010A8DF80010C0B28DF8010041190E
:104E200060684289914211D8216800786B46097EFA
:104E30000222FFF767FC48B92068EAB23346417D99
:104E400060680078FFF726FC002800D03846F8BDDF
:104E500068000020F8B5524C4FF0FF36A07A0028C9
:104E60007CD000258DF8005020686B460122C17B64
:104E700060680078FFF746FC00286FD120686B4619
:104E80000122417960680078FFF73CFC002865D179
:104E900020686B460122017960680078FFF732FCD8
:104EA00000287AD194F82400C8B30C208DF80000B3
:104EB00020686B460122017960680078FFF722FCC8
:104EC00000286AD1C0208DF80000A07AC00702D067
:104ED000E0208DF8000020686B46012201796068AF
:104EE0000078FFF70FFC002857D1607C18B1022032
:104EF0008DF8000001E08DF8005020686B4601221B
:104F0000C17B60680078FFF7FDFB38BB8DF800506F
:104F100020686B46012241796068007839E0FFE73C
:104F200004208DF8000020686B460122017960683A
:104F30000078FFF7E7FB88B9A07C80B9A07AC007AA
:104F40000DD060208DF8000020686B4601220179A9
:104F500060680078FFF7D6FB00B902E01DE0402052
:104F6000F0E7607C18B101208DF8000001E08DF8B9
:104F7000005020686B460122C17B60680078FFF713
:104F8000C1FB50B92068064B01224179606810339B
:104F90000078FFF7B7FB002800D03046F8BD0000CE
:104FA000680000202DE9F047394C82468AB094F819
:104FB00024000F4620B1002000F00EF9012600E089
:104FC000002607A8FFF700FD06A8FFF7BDFC09A80B
:104FD000FFF734FD08A8FFF74DFD94F80A9094F808
:104FE00010800025002239465046FFF75FF910B1C6
:104FF0006D1C022DF6DB022D1AD00025012203A91B
:105000006846FFF753F910B16D1C022DF6DB022D37
:105010000ED003A93846FEF7ADF8C7B26946504630
:10502000FFF7CEFA10F0FF0F4FF0000502D002E0BC
:10503000002503E001250FB945F00205FF2020728D
:105040006072E0724FF6FF71E181A072207401205E
:105050002073BDF81C0000F0FBF89DF8180000F06C
:1050600019F8BDF8240000F05BF9BDF8200000F04D
:105070008DF9484600F0CAF94046FFF73BFC16B1EF
:10508000012000F0A9F80AB02846BDE8F08700002A
:105090006800002038B5184C4FF0FF35A17A19B3DD
:1050A000022806D0042806D008280ED010281BD1CC
:1050B0000DE0002000E008208DF80000607A9DF8E7
:1050C0000010B0EBD10F04D005E01020F4E7182059
:1050D000F2E7002038BD20686B460122C179606884
:1050E0000078FFF70FFB08B1284638BD9DF8000097
:1050F000C0086072EDE7000068000020F8B5354C8C
:105100000546A07CA84201D10020F8BD31484FF0EF
:10511000FF366B46D0E900104FF0010209790078A4
:1051200035B3FFF7B7FA70BB9DF800006B4620F06F
:1051300020008DF800002068012201796068007865
:10514000FFF7E0FAF8B90320FEF78CFB02208DF898
:10515000000094F8220078B382202BE020686B4690
:105160000122017D60680078FFF7CCFA58B92EE083
:10517000FFF790FA38B9A07AC0079DF8000003D075
:1051800040F0200002E00CE020F020008DF800004C
:1051900020686B460122017960680078FFF7B2FA57
:1051A00008B13046F8BD0320FEF75CFB94F82200FE
:1051B00000B180208DF8000094F823000028CDD0A5
:1051C0009DF8000040F030008DF80000C6E7A5749F
:1051D0009AE700006800002038B51C4C94F82410B1
:1051E00081421DD0002500B394F82500D0B10020E5
:1051F00000F002FB0020FFF781FFE08C00F0C6F812
:105200008DF8005060686B46012200782321FFF77B
:1052100079FA012084F8240000F0EEFAFFF71AFE74
:10522000002038BD4FF0FF3038BD002000F0E4FA18
:10523000207C8DF8000060686B46012200782321F5
:10524000FFF760FA84F82450E8E7000068000020C7
:1052500038B5194C4FF0FF35A17A31B3FA2809D08F
:10526000B0F5FA7F08D0B0F57A7F0FD0B0F5FA6FBD
:105270001BD10DE0002000E008208DF80000207A0E
:105280009DF80010B0EBD10F04D005E01020F4E73A
:105290001820F2E7002038BD20686B460122817992
:1052A00060680078FFF72EFA08B1284638BD9DF8EF
:1052B0000000C0082072EDE76800002038B5174CE8
:1052C000054694F82300A84201D1002038BD0DB155
:1052D000302000E000208DF80000A07C28B19DF86F
:1052E000000040F002008DF8000094F8220028B180
:1052F0009DF8000040F080008DF8000020686B46AB
:105300000122017D60680078FFF7FCF910B14FF0D1
:10531000FF3038BD84F82350D7E700006800002034
:1053200038B5194C4FF0FF35A17A31B3BC2801D301
:10533000012010E0622801D302200CE02A2801D3CA
:10534000032008E0142801D3042004E00A2801D334
:10535000052000E006208DF80000E07A9DF800109E
:10536000884201D1002038BD20686B460122817837
:1053700060680078FFF7C6F908B1284638BD9DF887
:105380000000E072EEE7000068000020F8B51E4D56
:1053900004464FF0FF37A87A48B395F8240030BB95
:1053A000287D4FF47A7648B164B1282C03D8E0B256
:1053B000FFF782FC26E00020FFF77EFC042C05D2DC
:1053C000042406E00020FFF777FCF9E7B44200D997
:1053D0003446B6FBF4F0401E8DF8000028686B469A
:1053E0000122417868680078FFF78CF908B13846E7
:1053F000F8BD9DF80000401CB6FBF0F0E8814008C5
:10540000FFF78EFF0020F8BD68000020F8B50546C4
:1054100010F0700F4FF0000601D0012004E015B12C
:105420008DF8006002E040208DF80000244C6B46AF
:1054300001222068817C60680078FFF763F94FF0F3
:10544000FF3760BB9DF8000020F0400020738DF80E
:105450000060680602D404208DF80000A80605D478
:105460009DF8000040F002008DF80000E80605D429
:105470009DF8000040F001008DF80000280705D4D9
:105480009DF8000040F038008DF8000020686B4661
:105490000122C17C60680078FFF734F910B1A67270
:1054A0003846F8BD25B1082D02D00020FFF706FFD1
:1054B000A57226753220FEF7D5F90020F8BD000050
:1054C00068000020F8B516000D464FF0FF371FD0DA
:1054D000104CA17AE1B1010A8DF80010C0B28DF82C
:1054E0000100411960684289914211D82168007811
:1054F0006B46097E0222FFF705F948B92068EAB237
:105500003346417D60680078FFF7FCF8002800D042
:105510003846F8BD68000020002800DA4042704795
:105520000246012000E05043491EC9B2FBD2704739
:10553000F8B55D4D0020A860FCF7A8FA5B4E0C247E
:1055400000940021012332780846FCF709FC3078EA
:10555000012804D0022804D0032804D008E054A273
:1055600002E055A200E056A200210620FCF734FC20
:10557000554E642702233068002190FBF7F2362055
:105580000094FCF7EDFB51A200214220FCF724FC23
:1055900030680A2690FBF7F107FB110090FBF6F24A
:1055A0000123002148200094FCF7DAFB48A20021E7
:1055B0004E20FCF711FC47480068686010F1FF4F6F
:1055C00003D34549FAF731FE6860FBF7E6F8024677
:1055D0000323002162200094FCF7C2FB3BA20021C0
:1055E0007420FCF7F9FB3D496868FAF776FEFBF793
:1055F000D4F8B0FBF6F106FB1102012300217A205A
:105600000094FCF7ADFB36A20C210020FCF7E4FB74
:1056100034480C2102681020FCF788FB32480C212A
:1056200002684820FCF782FB30A218210020FCF71A
:10563000D3FB2F48182102681020FCF777FB2D4878
:10564000182102684820FCF771FB2BA224210020BE
:10565000FCF7C2FB2948242102681020FCF766FBF6
:105660002748242102684820FCF760FB25A234214A
:105670000020FCF7B1FB2448009405230268342184
:105680001020FCF76DFB21A234214020FCF7A4FB85
:105690001F4800940223026834215020FCF760FB6D
:1056A000BDE8F840FCF7D4BA40010020000000201B
:1056B0002D444D50000000002D4B616C6D616E005B
:1056C0002D48756275000000480000202E00000083
:1056D00056000000040000200000B44300002041F8
:1056E000626100001400002018000020766F0000A6
:1056F0001C00002020000020746E00002400002008
:1057000028000020767600002C000020747600002F
:10571000300000200C480188002202800307988C8A
:105720009A84DB13094A984202D9A0F57D40E838F3
:1057300010600748994202D9A1F57D41E83901601E
:105740001068404210607047240800403800002074
:105750003C00002010B588B0694604A8FFF722FC81
:10576000072835D107A8FFF749F90498FAF7D0FFC1
:1057700007990C46FAF7B1FDFAF7F6FF0490059881
:10578000FAF7C6FF2146FAF7A8FDFAF7EDFF0590F4
:105790000698FAF7BDFF2146FAF79FFDFAF7E4FFF6
:1057A000069004A8FEF716FB03A8FFF7EBF8BDF878
:1057B0000C000099414300910199414301910299E4
:1057C000414368460291FEF767FA02A0FCF7CEFF5C
:1057D00008B010BD73657474696E67206269617387
:1057E0002073756363657366756C6C79202E2E2E3D
:1057F0002E2E2E0D0A000000F8B5144C014622464C
:1058000094F82460D2E9000200235D1E56B179B1FC
:10581000022111E0C17B10786B460122FEF772FF76
:1058200068B90EE0A67A56B111B1617C61B902E0A7
:105830008DF80030EEE701218DF80010EAE72846E8
:10584000F8BD9DF8000060740020F8BD68000020DD
:105850002DE9F04106460F46FBF750F904000D46CE
:1058600018BF0120284320F00040C0F17F6000F104
:10587000E040C00F0ED0301C18BF0120384320F08C
:105880000040C0F17F6000F1E040C00F04BF012084
:10589000FDF71CF820462946BDE8F0812DE9F047C8
:1058A00092463F4A40F2DC533E4F1278DFF8F890C0
:1058B000B3FBF2F53A7800263C4C4FF0030805F5AF
:1058C0004875012A29D099F80020012A25D0C4E979
:1058D0000886E6613648006820623978012936D0AA
:1058E00099F80010012935D030466661A84200DDE4
:1058F000656161696842814200DA60612D482E4924
:1059000000680968431A2D4801682D480068FCF7B3
:10591000A7FC0028A06A21D024E0626A521C6262BF
:10592000012A01D0E06903E00844FFF7F5FDE061DA
:105930004FF4FA6191FBF0F02062032802DAC4F818
:105940002080C7E70A28C5DD0A202062C2E7616916
:10595000084401E06169081A6061C7E76169184499
:10596000401AA0624FF4E161884202DC4942884259
:1059700000DAA162134801685046FAF7AEFC05460A
:10598000A06AFAF7C5FE10490968FAF7A6FC29468D
:10599000FAF74BFCFAF7E8FEA061BDE8F0870000DB
:1059A0000000002036000020370000204C010020BD
:1059B00030000020380000203C000020480000207B
:1059C00004000020280000202400002070B50546B7
:1059D0000801FAF7A6FE0446294845436808FAF785
:1059E000A0FE2146FAF7ABFC0546FAF7D6FE84B2D4
:1059F0002046FAF796FE2946FAF76CFC0421FAF7DE
:105A0000DCFCFAF7CAFE4FF6FF7101EA04110A182E
:105A10001C48816941F008018161C16941F480211C
:105A2000C16119490B6823F47F430B600B6843F491
:105A30000B430B60144908310B6843F480630B601F
:105A4000016941F480210161016921F48021016132
:105A50000E480280001D018842F20C0211430180B1
:105A6000018841F480710180018841F020010180AA
:105A7000BDE870400223272203210120FBF742BF2B
:105A800040420F0000100240040C01400848004052
:105A900010B586B0012144F20400FCF7F3F94FF48D
:105AA0000070ADF8100018208DF813000320214C71
:105AB0008DF8120004A92046FBF7E8FA2015ADF88E
:105AC000100004208DF8130004A92046FBF7DEFA2D
:105AD0004FF4E13000900020ADF80400ADF806006E
