:020000040800F2
:100000003809002049010008C515000849100008FA
:1000100029150008650B0008C11F0008000000003A
:100020000000000000000000000000008D19000822
:10003000890D00080000000075180008E11A00088A
:100040006301000863010008630100086301000800
:1000500063010008630100086301000863010008F0
:1000600063010008630100086301000863010008E0
:1000700063010008630100086301000863010008D0
:10008000630100086301000863010008000000002C
:1000900000000000000000000000000063010008F4
:1000A00063010008351B00086301000863010008B4
:1000B0007D1B0008630100088D1B00086301000818
:1000C0006301000863010008630100086301000880
:1000D00063010008E91B000863010008591D0008BE
:1000E0006301000863010008630100086301000860
:1000F0006301000863010008000000000000000028
:100100000000000000000000630100086301000817
:10011000630100086301000863010008630100082F
:10012000630100086301000863010008630100081F
:1001300063010008DFF80CD000F08EFC0048004797
:1001400091370008380900200648804706480047D4
:10015000FEE7FEE7FEE7FEE7FEE7FEE7FEE7FEE777
:10016000FEE7FEE7E51A0008350100082DE9F04139
:100170000024061B254671F1000605DA012400273C
:10018000D0EB070067EB0101161E73F1000605DADC
:100190000027D2EB0702012567EB030300F035FBD4
:1001A00086460E4617469C46AC4204D00025D0EB4E
:1001B000050E65EB010624B10020D2EB000760EBD1
:1001C000030C704631463A466346BDE8F081D2B230
:1001D00001E000F8012B491EFBD270470022F6E730
:1001E00010B513460A4604461946FFF7F0FF2046AD
:1001F00010BD30B504460020034600E05B1C93426E
:1002000003D2E05CCD5C401BF8D030BD30B5054674
:100210000020034600E05B1C934205D2EC5CC85C06
:10022000201A01D1002CF6D130BDF0B480EA0102D1
:10023000D40F4200B2EB410F02D2024608461146EB
:100240004A0042D0C30DDDB2C1F3C752AD1A202D12
:1002500035DAC1F3160141F4000204B15242C5F18E
:10026000200602FA06F12A411044B3EBD05F23D0F6
:10027000C4B1012DA0EBC35009DCF0BC4FF000422B
:1002800002EAC352DBB200F5000000F029BB4000D7
:1002900000F1807000EBC350A0F1807040EAD17093
:1002A000490009E0490841EAC071A0EBC35000F5DC
:1002B0000000400800EBC350F0BC00F008BB6142F6
:1002C000012202EB4101001BF6E7F0BC704781F010
:1002D0000041AAE780F00040A7E780EA010210B5DC
:1002E00002F00043400022D04A001FD0010E01EB73
:1002F0001261C0F35600C2F3560240F4000042F40B
:100300000002A0FB022000047F39140400D0401C2E
:1003100050EA124001D44000491EC2B20C0604EB60
:10032000D010401C4008802A02D003E0002010BDFD
:1003300020F00100002900DA0020184310BD30B47D
:1003400080EA010202F0004530F0004221F0004056
:1003500013D090B1C30DD40DC2F31601C0F3160033
:10036000E41A41F4000140F400027D34914201D3CB
:10037000641C00E04900002C02DA30BC0020704709
:100380004FF400000023914201D3891A034340082F
:100390004FEA4101F7D151B1914202D14FF00041F2
:1003A00005E002D24FF0010101E06FF0010103EB23
:1003B000C450284430BC00F08ABA420005D0C0F3D3
:1003C000C7525242914201DC0020704700EBC150FD
:1003D00070472DE9FE4F804681EA0300C00F0C46AE
:1003E000009021F0004123F00045B8EB0200A94144
:1003F00005D24046214690461C460B46024623F055
:100400000040104347D0270DC7F30A00C3F30A5139
:100410000290401A019040286BDAC3F3130040F4B5
:10042000801B0098924620B10023D2EB030A63EBB5
:100430000B0B01985946C0F14002504600F016FAE5
:1004400006460D4650465946019A00F02EFA10EB2A
:1004500008006141002487EA115284EAE7731A43D5
:1004600040D0009A62B3019A012A4FEA075215DC84
:10047000001B61EB02014FF0004202EA0752CDE996
:100480000042001C41F5801132462B4600F065FA0F
:1004900003B0BDE8F08F40462146F9E7001B61EB51
:1004A0000201001C41F5801300185B412018A2F5E1
:1004B000001747EB030140EAD570B6196D4111E012
:1004C0006D084FEA360645EAC0754FEA0752001B31
:1004D00061EB0201001C41F5801149084FEA300030
:1004E0000019514132462B4603B0BDE8F04F00F0F1
:1004F00025BA0098012240000023D0EB020263EBF2
:10050000E073009821464FEAE074B8EB000061EB1D
:100510000401E9E783F000435BE781F0004158E71D
:100520002DE9FE4F81EA030404F0004421F000416C
:1005300000944FF0000B23F0004350EA01045ED01A
:1005400052EA03045BD0C3F30A54C1F30A552C44A6
:10055000A4F2F3340194A0FB0254C1F3130141F45B
:100560008011C3F3130343F4801301FB024400FB27
:10057000034E840A970A44EA815447EA8357A4FB4E
:10058000076802958D0A05FB07854FEA932C04FB4B
:100590000C542705029D4FEA065847EA1637B5EB7B
:1005A00008056EEB070C870E920E47EA811742EAA8
:1005B0008312A7FB0201B6EB0B0164EB00042B0DC9
:1005C00043EA0C335E1844EB1C50DA465146E7FB15
:1005D0000201C5F313044FEA0B3343EA14534FEA05
:1005E0000432019C43EA0603A4F10C040294009C2B
:1005F000CDE900B400F0B1F903B0BDE8F08F002000
:100600000146F9E72DE9F04D81EA030404F0004BBF
:1006100021F0004514464FF0000A23F0004150EA53
:10062000050220D054EA01021DD0C5F30A57024644
:10063000C5F31303C1F31300C1F30A5640F4801548
:1006400043F48013A7EB0608101BD64608F2FD38CA
:1006500073EB050002D308F1010801E092185B4139
:10066000B8F1000F03DA00200146BDE8F08D00204C
:100670004FF48011064684460EE0171B73EB050706
:1006800005D3121B63EB050306434CEA010C490832
:100690004FEA300092185B4150EA0107EDD152EA6F
:1006A000030012D082EA040083EA0501084305D062
:1006B000101BAB4106D20122002306E000224FF0BE
:1006C000004302E06FF0010253101AEB06004CEBFE
:1006D000085110EB0A0041EB0B01BDE8F04D00F0B2
:1006E0002DB970B521F0004303430CD0C1F30A5576
:1006F0000024D5EB040564EB0403D617AD1AB3410F
:1007000002DB0020014670BD201841EB025170BD94
:10071000C10F80EAE0700844CA079623002100F068
:10072000DFB896230022114600F0DAB80EB540F289
:10073000334102910021CDE900110A460B4600F039
:100740000CF903B000BD00F0004220F00040C10DE4
:10075000C0F3160040F400007F2901DA0020704742
:10076000962903DCC1F19601C84001E09639884022
:10077000002AF4D04042704720F00040C10DC0F381
:10078000160040F400007F2901DA00207047962906
:1007900003DCC1F19601C840704796398840704724
:1007A00070B5C1F30A5201F000450024C1F31301F2
:1007B00040F2FF3341F480119A4201DA002070BD0B
:1007C00040F233439A42A2F2334203DC524200F039
:1007D0005CF800E090402C43F1D0404270BD30B551
:1007E0000B46014600202022012409E021FA02F5EF
:1007F0009D4205D303FA02F5491B04FA02F5284489
:10080000151EA2F10102F1DC30BD2DE9F05F0546B5
:10081000002092469B4688460646814640241BE0BF
:10082000284641464746224600F02FF853465A468E
:10083000C01A914110D311461846224600F016F80E
:100840002D1A67EB01084F4622460120002100F0D7
:100850000DF817EB00094E41201EA4F10104DFDC66
:10086000484631462A464346BDE8F09F202A04DB2D
:10087000203A00FA02F1002070479140C2F12003B3
:1008800020FA03F3194390407047202A04DB203AF2
:1008900021FA02F00021704721FA02F3D040C2F1A0
:1008A00020029140084319467047202A06DBCB17E7
:1008B000203A41FA02F043EAE07306E041FA02F31B
:1008C000D040C2F1200291400843194670470029E8
:1008D000A8BF7047401C490008BF20F001007047C6
:1008E00010B4B0FA80FC00FA0CF050EA010404BF26
:1008F00010BC704749B1CCF1200421FA04F411FA7C
:100900000CF118BF012121430843A3EB0C01CB1DBF
:100910004FEA00614FEA102042BF002010BC704730
:1009200000EBC35010440029A4BF10BC7047401C0A
:10093000490008BF20F0010010BC704710B5141E1C
:1009400073F1000408DA401C41F1000192185B4188
:100950001A4301D120F0010010BD2DE9F04D92465F
:100960009B4611B1B1FA81F202E0B0FA80F2203276
:100970009046FFF77BFF04460F4640EA0A0041EA33
:100980000B0153465A46084313D0114653EA01005F
:1009900019D0C8F140025046FFF777FF05460E46D2
:1009A000504659464246FFF761FF084305D00120F3
:1009B00004E020463946BDE8F08D0020054346EAB4
:1009C000E0762C4337430A986305E40AA0EB08005D
:1009D0000022FD0A44EA47540A3002D500200146AD
:1009E000E9E7010510196941DDE908450019694188
:1009F000BDE8F04DA2E7C1F30A52C1F3130140F282
:100A0000FF3341F480119A4202DA00200146704718
:100A100040F233439A42A2F2334202DC5242FFF7E1
:100A200034BFFFF723BF000030B5041E71F100048E
:100A300004DB4FF00044404264EB0101141E73F1EB
:100A4000000405DB1C464FF00043524263EB0403F5
:100A5000994208BF904230BD064C074D06E0E06861
:100A600040F0010394E8070098471034AC42F6D3F5
:100A7000FFF764FB6054000880540008354810B547
:100A8000816941F00401816133490A6822F47022CE
:100A90000A60816941F400718161C16841F40071AB
:100AA000C160C16821F40071C160416821F4404116
:100AB0004160416841F40041416028480168284A8A
:100AC0001140016001680160016821F480710160DA
:100AD000001D016821F002010160016821F460211C
:100AE0000160016841F460210160016841F48011F6
:100AF0000160016821F400610160184928310A6829
:100B000022F470020A600A6800220A6013490C315C
:100B10000A6822F470220A600A6842F4E0420A601D
:100B2000016841F001010160016841F008010160C4
:100B300001680907FCD4016841F004010160016803
:100B40004907FCD4012001F015FFBDE8104000F07A
:100B500051BA000000100240000801400424014086
:100B6000FFFFF000FEE7000038B5002000906B4664
:100B700001227521682002F071FD30A001F022FAF7
:100B80009DF80000682809D035480168354A01F40D
:100B9000E06111430160BFF3408FFEE702F002FF06
:100BA000002849D1782003F073FB10B923A001F08D
:100BB00009FA782002F028FE10B92BA001F002FA01
:100BC000C82003F025FB10B931A001F0FBF902F0B9
:100BD0003FF810B938A001F0F5F94448044602F096
:100BE0009FFD0546E01C02F09BFD45EAC005A01DE7
:100BF00002F096FD45EA801080B202F037F910B994
:100C00003BA001F0DFF940F2731001F0F9FE10B9DA
:100C100041A001F0D7F9C82002F090F810B948A01F
:100C200001F0D0F903F09AFC012003F017FA002834
:100C300002D14CA001F0C6F938BD00006D70755F9F
:100C40007365745F73656E736F7220636F6D706C24
:100C5000657465202E2E2E2E2E2E0D0A000000000B
:100C60000CED00E00400FA056D70755F636F6E6651
:100C700069677572655F6669666F20636F6D706C1A
:100C8000657465202E2E2E2E2E2E0D0A00000000DB
:100C90006D70755F7365745F73616D706C655F72A5
:100CA00061746520636F6D706C657465202E2E2EE7
:100CB0002E2E2E0D0A000000646D705F6C6F616453
:100CC0005F6D6F74696F6E5F6472697665725F667F
:100CD00069726D7761726520636F6D706C657465A4
:100CE000202E2E2E2E2E2E0D0A000000D8000020C1
:100CF000646D705F7365745F6F7269656E74617443
:100D0000696F6E20636F6D706C657465202E2E2E7A
:100D10002E2E2E0D0A000000646D705F656E6162FC
:100D20006C655F6665617475726520636F6D706C6C
:100D3000657465202E2E2E2E2E2E0D0A000000002A
:100D4000646D705F7365745F6669666F5F7261740E
:100D50006520636F6D706C657465202E2E2E2E2EAF
:100D60002E0D0A006D70755F7365745F646D705F42
:100D7000737461746520636F6D706C657465202E8B
:100D80002E2E2E2E2E0D0A0070470000314810B571
:100D9000C16941F00401C161816941F008018161CB
:100DA0002D48016821F070610160016841F0006127
:100DB0000160016821F070410160016841F08041EB
:100DC00001602648018841F001010180018841F05D
:100DD0004001018001231E220321184600F078FB08
:100DE0001E4800231C3003801C494FF6E750203179
:100DF00008801A480C38018821F44071018001886C
:100E000021F06001018015490C310A8842F001028D
:100E10000A800A8842F480720A80104A14321488C8
:100E200024F002041480148824F0200414800A881A
:100E300042F030020A800949091F0A8842F0030281
:100E40000A80064918310B80018841F001010180B8
:100E500010BD000000100240000C01400C080040D2
:100E60002A4810B5C16941F00101C161816941F0B1
:100E7000040181612648016821F00F0101600168C9
:100E800041F004010160016821F0F0010160016896
:100E900041F040010160C404A08940F00100A0813C
:100EA000A08940F04000A08101231C2203211846A4
:100EB00000F00EFB002020854FF6E751A185218828
:100EC00021F440712180218821F060012180218B53
:100ED00041F001012183218B41F480712183218C18
:100EE00021F002012184218C21F020012184218B19
:100EF00041F030012183218941F003012181A08447
:100F0000208840F00100208010BD00000010024049
:100F100000080140F0B5CA78002502F00F03D206A0
:100F200001D58A7813430A784FF00F0E12F0FF0FA5
:100F30004FF001021CD004680F8802FA05F6374012
:100F4000B74211D14FEA850C0EFA0CF724EA0707D5
:100F500003FA0CF43C43CF78282F02D0482F02D05C
:100F600002E0466100E006616D1C082DE4D30460D8
:100F70000C88FF2C1ED944685FF0000606F10807B4
:100F800002FA07F50F882F40AF420FD14FEA860CC7
:100F90000EFA0CF7BC4303FA0CF73C43CF78282F2A
:100FA00000D14561CF78482F00D10561761C082E0D
:100FB000E4D34460F0BD41617047016170470000B7
:100FC0000B490A6822F01F020A600A6802430A609D
:100FD00007482C38016841F4800101600448343826
:100FE00001688907FCD502481830006880B2704754
:100FF0003424014010B50420FFF7E2FFFFF796FB11
:101000004FF066320B4BFFF78BFA00220A4BFFF7CB
:1010100087FA0022094BFFF783FA0022084BFFF7FB
:10102000F1FA6FF00B02FFF75CFBFFF7B9FB054924
:10103000086010BD66660A40000027400000594065
:101040000000F83F38000020FEE770B50D4604466A
:1010500000F0D6F8204600F0A3F800F019F9284671
:1010600000F09EF800F014F900F0CAF8641CE0B239
:1010700000F096F800F00CF9002000F05BF8044650
:1010800000F0E6F8204670BD70B50D4C0025C4F8A0
:10109000AC510C48016821F00F010160016841F07A
:1010A00003010160C4F8A051012004F5D07401F0DF
:1010B00075FC0120E06001F071FCE56070BD00008E
:1010C00000002142040801400848816941F0040100
:1010D0008161074801684FF20F0291430160016886
:1010E00043F2030211430160704700000010024008
:1010F0000408014070B50D4C0025C4F8AC510C48F3
:10110000016821F00F010160016841F003010160F5
:101110000126C4F8A061304604F5D07401F03EFC0D
:10112000E660012001F03AFCE56070BD000021425C
:10113000040801402DE9F047814617480024016862
:1011400021F00F010160016841F008010160134EB8
:10115000254627464FF00108C6F8AC71022001F081
:101160001DFCC6F8AC816006040ED6F8200108B15B
:10117000641CE4B2022001F011FC6D1CEDB2082DDC
:10118000EAD3B9F1000F02D0FFF77EFF01E0FFF7CD
:10119000B1FF2046BDE8F08704080140000021426D
:1011A0002DE9F04106461448016821F00F01016065
:1011B000016841F003010160104C0027C4F8AC71D4
:1011C0003D464FF00108F009C4F8A0017006060E74
:1011D000012001F0E3FBC4F8AC81012001F0DEFB4B
:1011E000C4F8AC71012001F0D9FB6D1CEDB2082DE3
:1011F000E9D3BDE8F081000004080140000021426D
:1012000070B51148016821F00F010160016841F0DB
:10121000030101600D4C0120C4F8A001D4F8201195
:1012200049B1C4F8AC0101F0B9FB0025C4F8A051E4
:10123000D4F8200108B1002070BD012001F0AEFB00
:10124000C4F8AC51012070BD0408014000002142E7
:101250000D4810B5016821F00F010160016841F0EF
:1012600003010160094C0020C4F8AC01C4F8A001DE
:10127000012004F5D07401F091FB0120E0602060B2
:10128000BDE8104001F08ABB040801400000214283
:1012900070B513480024016821F00F010160016856
:1012A00041F0080101600F4D0126C5F8A0613046EC
:1012B00001F074FBC5F8AC6107E0641CE4B2322CA9
:1012C00003D9FFF7C5FF002070BD012001F066FBC8
:1012D000D5F820010028F0D1C5F8AC01012070BD7F
:1012E000040801400000214210B51446FFF7ADFE8E
:1012F0002070012010BDF8B515461C460E46074665
:101300006A46FFF7F1FF01209DF80010A8400CB1DC
:10131000084301E021EA0000C2B28DF80020314606
:10132000384600F02BF8F8BD2DE9F84314461D4669
:101330000F4680466A46089EFFF7D6FF00281BD05E
:10134000611CFF20C4F1080200FA01F12A44521E78
:10135000D0400143C5F108008640F2B2C4F1070055
:10136000C2409DF80000084010438DF80000C2B252
:101370003946404600F002F8BDE8F88307B502ABF5
:10138000012200F001F80EBD2DE9F0411E46154680
:10139000884607460024FFF733FF3846FFF700FF73
:1013A000FFF776FF4046FFF7FBFEFFF771FF06E011
:1013B000305DFFF7F5FEFFF76BFF641CE4B2AC4253
:1013C000F6D3FFF745FF0120BDE8F081410607484D
:1013D000826942F0010282610548426822F0E062BF
:1013E000426042680A4342607047000000100240B9
:1013F000000001400748816941F008018161064809
:10140000016821F470010160016841F4000101608C
:101410007047000000100240000C01400949002202
:101420000B68834200DD0A600B685B1C0B60834223
:1014300006D10548D0F8A031DB43C0F8A0310A60DE
:1014400070470000500000200080214210B50220AB
:1014500000F011F8022000F020F8002000F014F84D
:10146000002000F02FF8002000F026F8BDE8104022
:10147000002000F01BB808B50323009002226B2166
:10148000D020FFF751FF08BD08B5022300900422C9
:101490001C21D020FFF748FF08BD08B502230090AB
:1014A00004221B21D020FFF73FFF08BD0346012285
:1014B0003721D020FFF71FBF034605226A21D02025
:1014C000FFF719BF034606226B21D020FFF713BF99
:1014D00010B51846144600F015F801204FF0E02131
:1014E000202C06D2D1F80021A0400243C1F80021EF
:1014F00010BDD1F80421203CA0400243C1F80421D2
:1015000010BD0000072181430A02054908684FF613
:10151000FF031840034B1843104308607047000056
:101520000CED00E00000FA05FEE70000214A10B5CE
:10153000D36943F00203D361936943F008039361D5
:101540001D4A136823F0FF031360136843F0BB03C5
:101550001360121D13689BB213601368174C23436A
:101560001360174A1080101F018015481038018839
:1015700041F4C0410180018841F06001018001888F
:1015800041F400610180018841F008010180001DE3
:10159000018841F480510180018841F4807101800B
:1015A000C11307482C380180018841F001010180F6
:1015B00010BD000000100240000C0140000022227B
:1015C0002C0400407047000070B50F23C4780178E8
:1015D0000122F4B1144C2468457804F4E064C4F5A5
:1015E000E064240AC4F10406E3408478B5401C405A
:1015F0002C4301F1E021230181F80034007800F050
:101600001F018A404009800000F1E020C0F800215D
:1016100070BD01F01F0082404809800000F1E02009
:10162000C0F8802170BD00000CED00E030B4002156
:10163000084B0A465FF0000003EBC004401CC0B238
:1016400062548028F8D3491CC9B20829F2D330BCAF
:1016500000F0B6B838010020524810B5816941F059
:101660000801816150490A6822F0F0020A600A68A4
:1016700042F020020A60816941F0100181618169B4
:1016800041F00101816149494A68C2F313024A608D
:101690004A68474B1A434A6046490A6842F48072D6
:1016A0000A60026A22F0010202624348028822F0C4
:1016B00001020280086820F4807008603F4C00201E
:1016C000C4F8B401642004F5DA7401F053F9012080
:1016D00020600021AE2000F099F80021D52000F014
:1016E00095F80021502000F091F80021A82000F08A
:1016F0008DF800213F2000F089F80021D32000F070
:1017000085F80021084600F081F80021402000F013
:101710007DF800218D2000F079F80021142000F0E0
:1017200075F80021202000F071F80021022000F05F
:101730006DF80021A12000F069F80021C02000F020
:1017400065F80021DA2000F061F80021122000F095
:101750005DF80021812000F059F80021EF2000F011
:1017600055F80021D92000F051F80021F12000F0B7
:101770004DF80021DB2000F049F80021302000F076
:1017800045F80021A42000F041F80021A62000F037
:101790003DF80021AF2000F039F8BDE81040FFF718
:1017A00045BF000000100240040C01400010014041
:1017B0000000202200700040306C004000002242F7
:1017C00070B5114E002400BF04F1B000C0B200217A
:1017D00000F01CF80021084600F018F80021102045
:1017E00000F014F85FF0000506EBC5000121005D74
:1017F00000F00CF86D1CEDB2802DF5D3641CE4B242
:10180000082CE1D370BD0000380100202DE9F04123
:10181000154F00250646012411B1C7F8A44101E087
:10182000C7F8A451DFF8448040214046FFF7C3FBCE
:101830000F490020C1F8BC51320602D5C1F8B841A9
:1018400001E0C1F8B851C1F8BC417206401C160E47
:10185000C0B20828EED340214046FFF7AEFBC7F8E0
:10186000A441BDE8F0810000008021420014014045
:101870000000224270470000044A0029916901D00B
:10188000014300E081439161704700000010024075
:1018900030B51F494A6812F00C031E4A03D0042BCE
:1018A00001D0082B21D002604A680F231A4C03EAAA
:1018B0001212A35C0268DA4042604B68072505EA11
:1018C0001323E35C22FA03F383604B6805EAD32316
:1018D000E35CDA40C2604968032303EA9131231FC5
:1018E000595CB2FBF1F1016130BD4A684B6802F40A
:1018F00070124FF0020413F4803F04EB924202D0C6
:101900004B689B0301D5054B00E0024B5A43CAE7E5
:101910000010024000127A004000002000093D0043
:1019200070B5164C1649174A608809881423084474
:1019300000B26080A1881288114409B2A180227887
:10194000521CD2B2B2FBF3F5227003FB1522002524
:101950001AB900F0DFF96580A5802078C821B0FBB6
:10196000F1F201FB1200002806D1FFF743FB064805
:10197000006800F0B1F9257070BD0000FC00002087
:1019800030000020340000203800002070470000A4
:101990000CB50021264801910091026842F4803282
:1019A00002604FF4A063026802F400320092019AD0
:1019B000521C0192009A12B9019A9A42F3D102681C
:1019C000920333D5012100911A490A6842F01002AE
:1019D0000A600A6822F003020A600A6842F0020202
:1019E0000A604168416041684160416841F480613A
:1019F0004160416821F47C114160416841F4E81183
:101A00004160016841F08071016001688901FCD585
:101A1000416821F003014160416841F002014160E9
:101A20004168C1F381010229FAD10CBD00910CBDBE
:101A3000001002400020024030B5234A40F6AC506E
:101A4000414213688B4201DA116002E0834200DDFB
:101A500010601E4B1C688C4201DA196002E084425F
:101A600000DD18601A48002104781A4844B1C0F813
:101A7000B811C0F8BC11C0F8B411C0F8B01130BD35
:101A800012680124002A04DAC0F8BC41C0F8B81179
:101A900003E0C0F8BC11C0F8B84101DAC2F100029D
:101AA0000D4D2A801A68002A04DAC0F8B411C0F873
:101AB000B04103E0C0F8B441C0F8B01101DAC2F19E
:101AC00000020648028030BD080000200C00002003
:101AD0001800002000802142400400403C040040E7
:101AE000704700000F4810B5016841F00101016026
:101AF00041680D4A1140416001680C4A1140016083
:101B0000016821F480210160416821F4FE014160F7
:101B10004FF41F018160FFF73BFF05494FF0006064
:101B2000086010BD001002400000FFF8FFFFF6FE45
:101B300008ED00E00E4810B50188C90716D00188ED
:101B400021F00101018002F0E9FC0A49012008703E
:101B500002F024FCFFF770FF0748C8210068BDE8C9
:101B6000104091FBF0F080B2FFF758BC10BD0000B0
:101B7000102C014004000020000000204FF08040A5
:101B8000018A018A21F0010101827047034801881E
:101B9000018821F001010180704700001008004019
:101BA0000F4A936943F4006393610E4A1080101F3B
:101BB00001800C482038018841F001010180018832
:101BC00041F04001018007482C38018841F00101B3
:101BD00001800123192203211846FFF779BC000078
:101BE000001002402C2C0140374810B500888006B8
:101BF00068D53548001D0088344CC1B20020242926
:101C00002FD02278112A2CD0304822780C308154E1
:101C1000521C22700A2955D10178242952D1817889
:101C200042F2107230395143C27802EB4203C3EBE7
:101C3000C21201EBC201027902EBC20303EB0212F2
:101C400001EB8201427902EB820201EB42018279CF
:101C50001144A1F550415039616042782D2A02D0DB
:101C600003E02070D0E749426160417A42F210728D
:101C700030395143827A02EB4203C3EBC21201EBCB
:101C8000C201C27A02EBC20303EB021201EB820132
:101C9000027B02EB820201EB4201427B1144A1F57F
:101CA00050415039A160007A2D2801D14842A060EE
:101CB0006068FEF72DFD06490860A068FEF728FD64
:101CC0000449086010BD00000038014054000020A5
:101CD000100000201400002070B5024600240825E2
:101CE00008A10A4800F07EF9094A0849101F0B5D57
:101CF0001380641CE4B203885B06FCD5AC42F6D3C7
:101D000070BD000023252B3036640A0071000020CE
:101D10000438014070B50B46024600240F2508A187
:101D20000B4800F05FF90B4A0949101F0B5D138047
:101D3000641CE4B203885B06FCD5AC42F6D370BDEC
:101D400023252B3036642C252B3036640A00000006
:101D500071000020043801402DE9F0414848008816
:101D6000800656D54648001D00880026C1B2454D64
:101D700024294AD028780D2847D0424C28780834A6
:101D80002154401C2870232943D12078242840D195
:101D900002223DA1601CFEF739FA3C4F98B30222A3
:101DA0003BA1601CFEF732FA70B36078532830D143
:101DB0006079384930384843A17940F27122514363
:101DC00000EB0110E17901EB4102C2EBC11100EB24
:101DD000C100217A01EBC10202EB011100EB81008D
:101DE000617A01EB810100EB4100A17A08442A49A4
:101DF0000844FEF78DFC2949FEF7A1FA68602179B5
:101E00002D290AD00CE002E005E02E70B5E7012094
:101E10003870BDE8F0813E70FBE780F000406860FC
:101E200002221FA1A01CFEF7F1F9D8B102221DA1C8
:101E3000A01CFEF7EBF9C0B102221BA1A01CFEF70B
:101E4000E5F9B0B1022219A1A01CFEF7DFF998B1A3
:101E5000022217A1A01CFEF7D9F90028D9D11549F3
:101E6000686804E01449686801E01449686808601B
:101E7000CFE713496868FAE712496868F7E7000096
:101E800000480040E4000020433500001800002016
:101E900043320000A0860100B0DCF7FF00007A4466
:101EA00056500000564900005644000044560000B9
:101EB000444100002C0000201C00002020000020D5
:101EC0002400002028000020C94301807047002919
:101ED000818902D041F4005101E021F40051818157
:101EE000704710B5C1F3421301F01F040121A14056
:101EF000012B07D0022B07D01430002A026805D02E
:101F00000A4304E00C30F8E71030F6E78A43026039
:101F100010BD000030B50446008A85B00D464CF671
:101F2000FF710840E98801432182A1894EF6F31030
:101F30000140A8882A8910436A890A431043A08176
:101F4000A08A4FF6FF410840A9890143A182684653
:101F5000FFF79EFC1948844201D1039800E00298E3
:101F6000A189090400EBC00101EB0010296801D52B
:101F7000490000E08900B0FBF1F06422B0FBF2F10F
:101F800009010B096FF018056B4300EB8300A3896F
:101F90001D044FF0320306D503EBC000B0FBF2F096
:101FA00000F0070005E003EB0010B0FBF2F000F0DA
:101FB0000F000843208105B030BD0000003801400B
:101FC000FEE700000FB4054B10B503A9044A0298C0
:101FD00000F0DEF810BC5DF814FB0000B53100081D
:101FE000240100200FB4084B10B504A902AA0398DD
:101FF00000F0CEF8044602A9002000F060FC204664
:1020000010BC5DF814FB0000BF28000802E008C8FF
:10201000121F08C1002AFAD170477047002001E062
:1020200001C1121F002AFBD1704700002DE9FF5F9C
:10203000DDE90220010DDDF838B0024318D044F686
:102040001050A1F2FF3141430D140F98012820D008
:10205000A5EB0B00401C5FEA000A4FF00004474E5E
:10206000DFF81C91A046504616D5CAF1000728E0BB
:102070000F98012443A2012808D0002100980F9B4B
:10208000C0E90021C0E90243BDE8FF9F6FEA0B01F0
:10209000F4E7CBF10000DEE7074612E0F80707D0CF
:1020A0002246334640464946FEF73AFA804689467C
:1020B0002246334610461946FEF732FA04460E46CB
:1020C0007F10002FEAD1DDE90201BAF1000F42468C
:1020D0004B4602DAFEF724FA01E0FEF793FA0446D3
:1020E0000E460022284BFEF79FFC03D84FF0FF302E
:1020F000014607E00022254B20463146FEF769F9EC
:10210000FEF779FC102409E0002C0ADB0A220023E8
:10211000FEF77BFB019B30321A55641E50EA010228
:10212000F2D1641C019AC4F1110314440F9A012ADC
:1021300003D0012208430DD10AE0084304D0002057
:102140004FF0110B0F9080E7A3EB0B056D1E0DE018
:102150005B4504DD4FF0000205F1010504E003DA00
:102160004FF00002A5F10105002AECD000980F996C
:10217000C0E90231C0E9004586E7000000002440C4
:102180000000F03F300000000000F0430000E03F9E
:102190002DE9FF4F95B09B468946064600250FE284
:1021A000252877D100242746F84A0121059400E02C
:1021B000044316F8013F203B01FA03F01042F7D127
:1021C00030782A2811D06FF02F033078A0F1300238
:1021D000092A16D8059A44F0020402EB820203EBA6
:1021E00042021044761C0590EFE759F8042B059243
:1021F000002A03DA504244F40054059044F00204EB
:10220000761C30782E2816D116F8010F44F00404FD
:102210002A280DD06FF02F023078A0F13003092B5F
:1022200009D807EB870302EB4303C718761CF3E7D3
:1022300059F8047B761C30786C280FD006DC4C28CB
:1022400017D068280DD06A2814D104E0742810D063
:102250007A280FD10DE044F400140AE044F480140D
:1022600001E044F440147278824202D104F58014F3
:10227000761C761C307866280BD013DC582877D073
:1022800009DC002875D04528F6D04628F4D0472828
:102290001AD19DE118E0632835D0642879D06528EB
:1022A00012D195E1702873D008DC6728F1D0692835
:1022B0006FD06E280DD06F2806D1B5E073282CD0D2
:1022C000752875D0782874D05A46179990476D1C98
:1022D00075E1C4F30250022809D003280DD0D9F8C3
:1022E000001004280DD00D6009F1040967E1D9F848
:1022F0000010EA17C1E90052F6E7D9F800100D8086
:10230000F2E70D70F0E719F8041B8DF800100020BB
:102310008DF80100EA46012003E059F804AB4FF0C4
:10232000FF3061074FF0000102D40DE008F1010118
:102330008846B9420FDA8045F8DB1AF80810002900
:10234000F4D108E008F1010188468142FADB1AF86D
:1023500008100029F6D105985B46A0EB0807214636
:102360003846179A00F094FA284400EB080507E075
:102370004DE029E10DE01AF8010B5A4617999047F4
:10238000B8F10108F7D25B4621463846179A13E1A7
:1023900042E00A220092C4F302524FF0000A022ADD
:1023A00008D059F804CB032A4FEAEC710AD00DE0AB
:1023B00029E02AE009F1070121F00702F2E802C151
:1023C000914609E00FFA8CFC4FEAEC71042A03D124
:1023D0004FFA8CFC4FEAEC71002907DA0A4600211B
:1023E000DCF1000C61EB02012D2202E0220504D594
:1023F0002B228DF80420012203E0E20701D02022E5
:10240000F7E7904659E00A2102E010220DE0102182
:102410004FF0000A00910BE010224FF0000A44F048
:1024200004040827009203E008224FF0000A0092FB
:10243000C4F30252022A05D059F804CB0021032A22
:1024400008D009E009F1070121F00702F2E802C112
:10245000914605E01FFA8CFC042A01D10CF0FF0C18
:102460004FF00008220728D5702806D0009B83F083
:10247000100353EA0A0305D00EE040228DF8042031
:10248000012208E05CEA010206D030228DF8042027
:102490008DF8050002229046009B83F0080353EA62
:1024A0000A030AD15CEA010201D1620705D5302294
:1024B0008DF804204FF001087F1E582804D034A066
:1024C00003900EA802900DE036A0F9E7534660464F
:1024D000009AFEF79AF984460398825C0298401E9F
:1024E000029002705CEA0100F0D1029806A9081A75
:1024F00000F1200A600702D524F4803400E00127AF
:10250000574502DDA7EB0A0000E0002000EB0A01BE
:10251000009005984144401A0590E00306D45B46BC
:102520002146179A059800F0B3F90544002706E004
:1025300001A85A46C05D179990476D1C7F1C4745FE
:10254000F6DBE0030CD55B462146179A059800F0B0
:102550009FF9054404E030205A46179990476D1CB6
:102560000099481E00900029F5DC08E002980299C5
:102570005A460078491C0291179990476D1CBAF190
:102580000001AAF1010AF1DC65E10000092801005F
:1025900030313233343536373839616263646566D9
:1025A000000000003031323334353637383941429B
:1025B000434445460000000000F058F90544761CED
:1025C000307800287FF4ECAD19B02846BDE8F08FD4
:1025D000620700D4062709F1070222F0070CFCE885
:1025E0000223E14603F000485FEA080C02D00FF234
:1025F000702C0DE05FEA045C02D50FF2682C07E056
:102600005FEAC47C02D00FF2602C01E0AFF2700CE4
:102610004FF0FF3823F00043CDF850C065280CD0B0
:1026200006DC452809D046281DD047283DD13DE08D
:10263000662818D067287ED138E00021112F01DBF1
:10264000112000E0781CCDE9000106A90EA8FFF7D3
:10265000EDFCDDE90F010E9A03910021009207F1D4
:10266000010A04914DE04FF000400097CDE90110C0
:1026700006A90EA8FFF7DAFCDDE90F0203920E9B14
:1026800011990022DDF80CA00093049211B9791C75
:1026900000EB010AB7EB0A0004D4C0F1FF3007F1E8
:1026A000010A0490AAEB0700019044E0012F00DA30
:1026B00001270021112F01DD112000E03846CDE96E
:1026C000000106A90EA8FFF7B1FCDDE90F010E9A83
:1026D0000391002104910092BA4621070CD403997A
:1026E000514500DA8A46BAF1010F05DD009AAAF1D8
:1026F0000101515C302908D0B84202DA10F1040F10
:1027000006DA0121CDE9011015E0AAF10101E9E79E
:10271000002805DC049901440491AAEB000102E0C1
:10272000411C514500DD8A460499401A401C019025
:102730004FF000400290200704D40198504501DB7F
:10274000CDF8048000208DF84F0002980DF14F075E
:10275000B0F1004F25D02B200E9002984FF00208C8
:1027600000280CDA404202902D200E9007E00A214A
:102770000298FEF734F83031029007F8011DB8F1E5
:102780000001A8F10108F2DC02980028EFD1791EBF
:102790000E980870307800F0200040F0450007F8EF
:1027A000020D12A8C01B00F107081498007800B1B0
:1027B000012000EB0A01019801EBE071059841440A
:1027C000401A401E0590E00306D45B462146179A46
:1027D000059800F05DF805441498007818B15A4641
:1027E000179990476D1CE00324D55B462146179A44
:1027F000059800F04DF805441CE00498002807DB1C
:10280000DDE90301884203DD0098405C179901E08F
:10281000179930205A469047049805F10105401C4D
:1028200004900198401E019004D12E205A46179919
:1028300090476D1CBAF10001AAF1010ADDDC05E048
:1028400017F8010B5A46179990476D1CB8F1000113
:10285000A8F10108F4DC5B462146179A0598ABE61F
:102860002D0000002B000000200000002DE9F041A9
:10287000044600251E461746880404D405E0394660
:102880002020B0476D1C641EF9D52846BDE8F081B4
:102890002DE9F041044600251E469046C80301D5A7
:1028A000302700E02027880404D505E0414638465B
:1028B000B0476D1C641EF9D52846BDE8F0810A6852
:1028C000531C0B60107070472DE9FE4F07460E46F3
:1028D0000025684600F078FC00246FF00F0AE846F7
:1028E0004FF0010957F8240056F82410401A00D57B
:1028F0004042FDF70DFF5146FDF75FFD58F82410EB
:1029000011F0FF4F0BD0FDF71AFD4FF07E51FDF790
:10291000DEFC0A4920F00040884205DC07E0084957
:1029200008440849884202D309FA04F00543641CAC
:10293000032CD7DB2846BDE8FE8F0000295C0F3E44
:10294000666666C19A99D9004FF0E0210A6922F0C3
:1029500004020A610649C00800EB40020870C2EB9D
:10296000C0104FF6FF7202EAC000488070470000B6
:10297000820000200849498848434FF0E02148611F
:102980000020886101220A610A69D30701D0D203BD
:10299000FAD50861886170478200002008490978EB
:1029A00048434FF0E02148610020886101220A611C
:1029B0000A69D30701D0D203FAD50861886170474C
:1029C0008200002008B560B120208DF8000028208A
:1029D0008DF8010030208DF8020038208DF80300BA
:1029E00004E0A32204216846FDF7F1FB6A460421B6
:1029F00040F69E2001F0A8FC01F06EF908BD000031
:102A00003EB5044602208DF80000CA208DF8010072
:102A1000E3208DF8020009208DF803006A460421A6
:102A2000682001F091FCA3208DF80000610609D513
:102A3000C0218DF80110C8218DF80210C2218DF837
:102A4000031005E08DF801008DF802008DF80300F9
:102A500014F4C07F09D0C4218DF80410CC218DF866
:102A60000510C6218DF8061005E08DF804008DF8DC
:102A700005008DF806008DF808008DF807008DF828
:102A800009006A460A2140F6A72001F05DFCA00774
:102A90004FF0D80503D020208DF8000001E08DF81C
:102AA00000506A46012140F6B62001F04DFCA00618
:102AB00001D5012000E0002000F08EF814F4C07F62
:102AC0001ED0E0050AD5B2208DF800008B208DF8CD
:102AD0000100B6208DF802009B2009E0B0208DF89F
:102AE000000080208DF80100B4208DF802009020B5
:102AF0008DF803006A46042140F6A22001F024FC70
:102B0000E1074FF40B6022D0F8218DF800106A46DF
:102B1000012101F019FCFA21072000F097FA0720A3
:102B200000F062FA012000F07FFA642000F022FB3E
:102B30004FF4FA7000F02EFBC821254800F01CFA73
:102B4000282000F031FA0A2000F03EFA05E08DF866
:102B500000506A46012101F0F7FBA00703D5D920F8
:102B60008DF8000001E08DF800506A46012140F226
:102B70003D7001F0E9FB600701D5012000E0002075
:102B800000F048F8E00601D5012000E00020FFF742
:102B900019FF104D44F00800688101F09DF80020F5
:102BA000A873600601D50620A87314F4C07F02D074
:102BB000A87B801DA87314F0140F02D0A87B1030DE
:102BC000A873A00702D0A87B001DA87300203EBDFB
:102BD00009E3CA02280100200EB54FF4976310B133
:102BE00006A107C901E008A207CA8DE807006A46E6
:102BF0000921184601F0A8FB0EBD0000B8AAB38D4C
:102C0000B4980D355D000000B8AAAAAAB088C3C563
:102C1000C700000008B560B1C0208DF80000C220D8
:102C20008DF80100C4208DF80200C6208DF8030045
:102C300004E08B2204216846FDF7C9FA6A460421A4
:102C400040F6982001F080FB01F046F808BD000036
:102C5000C8234FF48062024940F6F63000F066BFA8
:102C6000184800082DE9FF41044603A800F014FEAF
:102C7000BDF80C00410CC3032F48028902F0030089
:102C8000550754F8200000D54042C2F3C10596060E
:102C900054F8255000D56D42C2F38116D20554F880
:102CA000264000D56442A0FB0367C21702FB0372F3
:102CB00000FB0120820042EA9670A5FB0367EA1739
:102CC00002FB037205FB0122950045EA9672A4FB04
:102CD0000367E51705FB037304FB01318B0043EA2F
:102CE0009671030E8DF80030030C8DF80130030A45
:102CF0008DF802308DF80300100E8DF80400100CD2
:102D00008DF80500100A8DF80600080E8DF80800F1
:102D1000080C8DF80900080A8DF80A008DF80720C4
:102D20008DF80B106A460C214FF4257001F00CFB56
:102D300004B0BDE8F08100002801002030B5044651
:102D400013A285B007CA8DE807004FF0FF35C82CE5
:102D500016D8C820B0FBF4F1491E080A8DF80C0003
:102D60008DF80D1003AA022140F2162001F0ECFAB2
:102D700030B96A460C2140F6C12001F0E5FA10B1E5
:102D8000284605B030BD054884810020F9E70000E1
:102D9000FEF2ABC4AAF1DFDFBBAFDFDF280100200A
:102DA000F8B53049098901F0030250F822404A077A
:102DB00000D56442C1F3C1028B0650F8222000D531
:102DC0005242C1F3811350F82330C80500D55B424D
:102DD000254984FB0140850045EA947082FB01424D
:102DE000A40F44EA820483FB0121950F45EA810583
:102DF000010E8DF80010010C8DF80110010A8DF8FC
:102E000002108DF803006A4604214FF4747001F03B
:102E10009BFA4FF0FF3688B9200E8DF80000200C89
:102E20008DF80100200A8DF802008DF803406A46F3
:102E300004214FF4757001F087FA08B13046F8BDEF
:102E4000280E8DF80000280C8DF80100280A8DF856
:102E500002008DF803506A4604214FF4767001F0A9
:102E600073FAF8BD2801002009E3CA022DE9FF41E9
:102E700004463CA004F00303006802903AA00068F6
:102E800003903AA006683AA0056802A8C15C8DF8D4
:102E90000010C4F3C101425C8DF80120C4F381121B
:102EA000805C8DF8020003A8C35C8DF80430415C9F
:102EB0008DF80510805C8DF806006A46032140F20B
:102EC000264001F041FA4FF0FF37E0BB01AA032191
:102ED00040F22A4001F038FAA8BBCDE9006560074E
:102EE0000BD59DF8000040F001008DF800009DF822
:102EF000040040F001008DF80400A0060BD59DF8F9
:102F0000010040F001008DF801009DF8050040F03F
:102F100001008DF80500E0050BD59DF8020040F09A
:102F200001008DF802009DF8060040F001008DF8C8
:102F300006006A4603214FF4886001F005FA10B9D3
:102F400001AA032100E004E040F2314001F0FCF965
:102F500018B1384604B0BDE8F0810648048100206D
:102F6000F8E700004CCD6C000CC92C0036567600FA
:102F700026466600280100204FF47A7290FBF2F09A
:102F800008B54843010E8DF80010010C8DF80110B2
:102F9000010A8DF802108DF803006A4604214FF4EF
:102FA000AE7001F0D1F908BD0521B0FBF1F008B514
:102FB000010A8DF800108DF801006A4602214FF4D5
:102FC000AD7001F0C1F908BD0521B0FBF1F008B505
:102FD000010A8DF800108DF801006A4602214FF4B5
:102FE000AC7001F0B1F908BD08B500218DF80010F2
:102FF000C10702D030218DF80010810705D59DF85A
:10300000001041F00C018DF80010400705D59DF827
:10301000000040F003008DF800006A4601214FF4E3
:10302000A47001F091F908BD08B560B1042800D979
:103030000420401E8DF800006A46012140F24F1026
:1030400001F082F908BD0120F3E700002DE9FC4101
:10305000054640074FF0FF367CD0B1F5C86F79D8F0
:103060000846FDF75EFB3E49FDF769F9074601A8F2
:1030700000F0F4FB9DF80400022806D004280DD0CF
:1030800008282ED0102865D134E00E213846FDF7EF
:1030900094F9FDF771FB84B2324907E00D213846FF
:1030A000FDF78BF9FDF768FB2F4984B23846FDF731
:1030B00014F9FDF761FB210A8DF8001080B28DF83C
:1030C0000140010A8DF802108DF80300E8076C46F4
:1030D00020D0224602214FF4EA7001F035F9C8BB36
:1030E00011E00C213846FDF768F9FDF745FB84B285
:1030F0001E49DBE70B213846FDF75FF9FDF73CFB86
:1031000084B21B49D2E7A21C02214FF4927001F055
:103110001BF9F8B9A8070DD56A4602214FF4EC70E7
:1031200001F012F9B0B9A21C02214FF4947001F021
:103130000BF978B9680710D56A4602214FF4EE7092
:1031400001F002F930B9A21C02214FF4967001F08F
:10315000FBF810B13046BDE8FC810020FBE7000021
:1031600000004843000040460000C04500004045C4
:103170000000C0440521B0FBF1F008B5010A8DF84C
:1031800000108DF801006A4602214FF4EF7001F043
:10319000DBF808BD0521B0FBF1F008B5010A8DF898
:1031A00000108DF801006A4602214FF4ED7001F025
:1031B000CBF808BD034AC1B21180111F0A8852061C
:1031C000FCD57047043801402DE9FE4306462648E9
:1031D00001AB042240680D21007800F03FFA10B1E5
:1031E0000720BDE8FE839DF804101C2000EAD102F0
:1031F0009DF80710DFF87490C1F301131A438DF89E
:1032000000209DF80520C1F3810300EAD2021A4391
:103210008DF801209DF8062001F0030100EAD2009C
:1032200008430024124F8DF80200A0466D46285D29
:1032300010B146F824900AE046F824800DE000BF63
:1032400056F824003946FDF748F846F82400285D72
:10325000401E10F0FF002855F2D1641CE4B2032C8C
:10326000E5D30020BDE70000880000207B14AE3EBF
:103270001D5A843F2DE9FE4F05460120C14E8DF8B1
:1032800000004FF000088DF8018030680C461746AA
:10329000817C70686B460222007800F017FA4FF0CC
:1032A000FF3A00287AD1C820FFF764FB8DF8008030
:1032B00030686B460122C17B7068007800F006FA26
:1032C0000028EFD130686B460122417970680078A0
:1032D00000F0FCF90028E5D130686B460122817CC2
:1032E0007068007800F0F2F90028DBD130686B4696
:1032F0000122C17D7068007800F0E8F90028D1D182
:1033000030686B46012201797068007800F0DEF9C0
:103310000028C7D14FF00C098DF8009030686B463B
:10332000012201797068007800F0D0F9002835D1C9
:103330000F20FFF71FFBB06A6B460122407A8DF821
:103340000000306881787068007800F0BFF90028CC
:1033500024D1B06A6B460122007A8DF800003068F3
:1033600041787068007800F0B1F9002873D1B06A34
:10337000807A0FB140F0E0008DF8000030686B46B5
:10338000012281797068007800F0A0F9002862D1EC
:103390002FB1B06AC07A40F0E00001E04AE01820A6
:1033A0008DF8000030686B460122C17970680078A2
:1033B00000F08CF9F0BB17B1C820FFF7DBFA402012
:1033C0008DF8000030686B46012201797068007842
:1033D00000F07CF970BB78208DF8000030686B46F7
:1033E000012241797068007800F070F910BB32203A
:1033F000FFF7C0FA8DF80080306847466B46417988
:1034000070680122007800F061F998B9316870683D
:10341000B046897A00786B46022200F01FF948B95D
:10342000BDF80000AF6040BAB0FBF9F06F60C6B203
:103430002F6000E00FE0A76067602760002739E099
:10344000D8F80010D8F804006B46C97A00780C222E
:1034500000F004F910B15046BDE8FE8FBDF8000041
:10346000236840BA02B2BDF80200BDF804101A4445
:10347000226040BA626800B21044606049BAA06835
:1034800009B20844A060BDF806002B6840BA02B239
:10349000BDF808001A4440BA01B2BDF80A002A601B
:1034A0006A6840BA11446960A96800B208447F1C88
:1034B000FFB2A860B742C3D328688322C1170904AA
:1034C00041EA104100040023FCF750FE324600237D
:1034D000FCF74CFE286068688322C117090441EAA2
:1034E000104100040023FCF741FE32460023FCF7A4
:1034F0003DFE6860A8688322C117090441EA1041B3
:1035000000040023FCF732FE32460023FCF72EFEB7
:10351000A86020684FF40065C117090441EA104112
:1035200000042A460023FCF721FE32460023FCF764
:103530001DFE206060682A46C117090441EA104157
:1035400000040023FCF712FE32460023FCF70EFEB7
:103550006060A0682A46C117090441EA10410004CE
:103560000023FCF703FE32460023FCF7FFFDA060BA
:10357000002802DDA0F5803001E000F58030A06079
:10358000002069E7880000202DE9F84F81462E4889
:103590008846002540686B46032200780D2100F024
:1035A0005DF810B10720BDE8F88F9DF800000024F9
:1035B00000F01F008DF800009DF801006FF00F0B68
:1035C00000F01F008DF801009DF802006E4600F02B
:1035D0001F008DF802004FF0010A00BF59F82410B7
:1035E00058F82400081A00D54042FDF791F85946D2
:1035F000FCF7E3FE0746305DC0B1144802E0144911
:10360000FCF76BFE315D491E11F0FF013155F6D11B
:1036100001463846FCF793FE4FF07E51FCF757FE0B
:103620000C4920F00040884205DC07E00A48384495
:10363000B0F1D97F02D90AFA04F00543641C032CC7
:10364000CCDB2846AFE70000880000200000C8411E
:1036500054E3853F295C0F3E0000E0BE2DE9F041B8
:103660001D4614460F460646FDF7CAFDB0B170066A
:10367000000EFDF795FDFDF70BFE90B13846FDF706
:103680008FFDFDF705FEFDF7BBFD012000EB4600B9
:10369000C0B2FDF785FDFDF7FBFD0FE00120BDE8A1
:1036A000F081FDF7D5FDF9E7012C0DD05FF00100A9
:1036B000FDF740FD641E05F8010BE4B2002CF3D1C8
:1036C000FDF7C6FD0020EAE70020F1E72DE9F04113
:1036D0001E4615460F460446FDF792FD68B160068A
:1036E000000EFDF75DFDFDF7D3FD48B13846FDF74F
:1036F00057FDFDF7CDFD00240CE00120BDE8F08171
:10370000FDF7A6FDF9E7305DFDF74AFDFDF7C0FDC9
:1037100010B1641CAC42F6DBFDF79AFD0020EDE72A
:1037200090F90010002902DD4FF00000704702DA26
:103730004FF00400704790F90110002902DD4FF0AE
:103740000100704702DA4FF00500704790F902005F
:10375000002802DD4FF00200704702DA4FF0060049
:1037600070474FF0070070470748816941F0080132
:1037700081610648016821F00F010160016841F094
:10378000030101607047000000100240040C01407A
:10379000FEF7A8F94820FFF7D7F800F0BFFF4FF475
:1037A0001651482000F058FF0220FDF70FFE0120BF
:1037B000FDF70CFEFFF7D8FFFDF71CFEFDF75EF9E5
:1037C000002140F60F60FDF7B1FEFDF745FFFDF764
:1037D000DDFAFDF745FBC820FFF7CCF8FDF774FCD8
:1037E000FDF734FEFDF7C0F941F61F413120FEF729
:1037F000D7F9044C002520780028FCD0FEF790F87B
:103800002570F8E7040000202DE9F041124C20F06B
:103810000101002594F8240010B10020BDE8F081DA
:10382000A07A4FF0FF3668B10840277C20748842A8
:1038300000D0354641B1012000F0E2FE00F04CFA24
:1038400038B127743046E9E7207D00B1012000F04F
:10385000D7FE2846E2E70000880000200D494A7A9A
:1038600042B1012A08D0022A0FD0032A0FD04FF00C
:10387000FF307047022200E004220270C97C11B1BF
:103880001106C90D0170002070470822F5E71022CB
:10389000F3E70000880000200F494A7A42B1012A6C
:1038A00009D0022A11D0032A12D04FF0FF307047FE
:1038B0004FF4804201E041F69C720280C97C11B154
:1038C000C2F34E010180002070474FF48052F4E7AC
:1038D0004FF40062F1E70000880000200B49097AEC
:1038E00039B1012907D002290AD003290BD00021C0
:1038F00003E0FA2101E04FF4FA71018000207047E3
:103900004FF47A71F9E74FF4FA61F6E78800002086
:103910000A49097A41B1012908D002290AD00329AC
:103920000AD04FF0FF307047054900E005490160BB
:10393000002070470449FAE70449F8E788000020AE
:103940000000034300008342333303423333834197
:103950000C49C97A072913D2DFE801F01204060ADC
:103960000C0E1000BC2100E0622101800020704795
:103970002A21FAE71421F8E70A21F6E70521F4E7FE
:103980000021F2E788000020054991F8242012B1B7
:103990004FF0FF307047C989018000207047000058
:1039A000880000202DE9FC414C4C80208DF800005F
:1039B00020686B460122817C60680078FFF786FEF4
:1039C0004FF0FF37002832D16420FEF7D3FF0025E7
:1039D0008DF8005020686B460122817C6068007879
:1039E000FFF774FE002870D120686B460622817DA7
:1039F00060680078FFF732FE002866D19DF8050068
:103A00009DF80310C007400F01F0010140EA410199
:103A10009DF801004FF0010600F00100014309D0BC
:103A2000012905D0022915D02DA0FEF7CBFA4CE0D4
:103A3000E67410E020686B460122C1786068007867
:103A4000FFF70CFE40BB9DF8000010F00F0020D0E7
:103A5000042822D0E574FF2004F80A0F4FF6FF7106
:103A600004F8020C04F8010C6070A180A0712072AF
:103A7000A67026766576E572A572E56025616561BA
:103A8000A576E576A5834FF4FA6000F023FB18B91C
:103A900007E01D48FEF796FA17E01CA0FEF792FA21
:103AA000C6E7022000F038FA78B92A2000F07AFB45
:103AB00058B9322000F0ACFB38B90020FFF7A4FE63
:103AC00018B9002000F05CFA10B13846BDE8FC815E
:103AD000002000F0DDFB0020F8E700008800002057
:103AE000556E737570706F7274656420736F667451
:103AF000776172652070726F647563742072657689
:103B00002025642E0A0000001054000848616C66ED
:103B10002073656E73697469766974792070617257
:103B20007420666F756E642E0D0A00002DE9FF4F3C
:103B3000DFF89480064685B098F8250015460F46B4
:103B40004FF0FF39B0BBAFB3002420E0301B10288A
:103B500000DD102080B283463A1901469246204685
:103B600000F0F2FB30BB6A465946204600F08AF866
:103B700000BB50465A466946FCF73BFB20B16FF04C
:103B8000010009B0BDE8F08F04EB0B0084B2B44231
:103B9000DCD3280A8DF810008DF81150D8F80000F9
:103BA000444604AB817ED8F8040002220078FFF777
:103BB0008DFD08B14846E4E7012084F82500089807
:103BC000E0840020DDE70000880000202DE9F843B4
:103BD00005464FF0FF39282844D80727284C0026EF
:103BE0007DB1012000F0ACFA20208DF800004FF0EC
:103BF0000108012D17D0052D18D88DF8018005205A
:103C00001FE0002000F09CFA8DF800608DF8017034
:103C100020686B460222817C60680078FFF756FDC1
:103C200000BB267529E08DF80160E8E7142D04D863
:103C300002208DF801000A2003E003208DF8010026
:103C4000142000F0AFFA9DF801006B4607EB8010DE
:103C50008DF8010020680222817C60680078FFF7FF
:103C600035FD10B14846BDE8F8830820A0722673E0
:103C700084F814800020FFF7C7FD0020F3E7000060
:103C800088000020F8B516000D464FF0FF371FD012
:103C9000104CA17AE1B1010A8DF80010C0B28DF884
:103CA0000100411960684289914211D82168007869
:103CB0006B46097E0222FFF709FD48B92068EAB287
:103CC0003346417D60680078FFF7C8FC002800D0CB
:103CD0003846F8BD88000020F8B5524C4FF0FF364A
:103CE000A07A00287CD000258DF8005020686B4613
:103CF0000122C17B60680078FFF7E8FC00286FD1E3
:103D000020686B460122417960680078FFF7DEFC8D
:103D1000002865D120686B4601220179606800782F
:103D2000FFF7D4FC00287AD194F82400C8B30C2003
:103D30008DF8000020686B460122017960680078E8
:103D4000FFF7C4FC00286AD1C0208DF80000A07ADB
:103D5000C00702D0E0208DF8000020686B460122E9
:103D6000017960680078FFF7B1FC002857D1607CCA
:103D700018B102208DF8000001E08DF80050206895
:103D80006B460122C17B60680078FFF79FFC38BB5F
:103D90008DF8005020686B460122417960680078F8
:103DA00039E0FFE704208DF8000020686B4601220F
:103DB000017960680078FFF789FC88B9A07C80B938
:103DC000A07AC0070DD060208DF8000020686B46F7
:103DD0000122017960680078FFF778FC00B902E001
:103DE0001DE04020F0E7607C18B101208DF8000054
:103DF00001E08DF8005020686B460122C17B6068AD
:103E00000078FFF763FC50B92068064B0122417926
:103E1000606810330078FFF759FC002800D0304666
:103E2000F8BD0000880000202DE9F047394C82469B
:103E30008AB094F824000F4620B1002000F00EF95B
:103E4000012600E0002607A8FFF748FD06A8FFF7B7
:103E500005FD09A8FFF77CFD08A8FFF795FD94F87C
:103E60000A9094F810800025002239465046FFF74A
:103E700001FA10B16D1C022DF6DB022D1AD00025BF
:103E8000012203A96846FFF7F5F910B16D1C022D58
:103E9000F6DB022D0ED003A93846FEF715FDC7B29A
:103EA00069465046FFF770FB10F0FF0F4FF000051A
:103EB00002D002E0002503E001250FB945F002051C
:103EC000FF2020726072E0724FF6FF71E181A072F4
:103ED000207401202073BDF81C0000F0FBF89DF851
:103EE000180000F019F8BDF8240000F05BF9BDF8E7
:103EF000200000F08DF9484600F0CAF94046FFF76F
:103F000083FC16B1012000F0A9F80AB02846BDE8EC
:103F1000F08700008800002038B5184C4FF0FF35BE
:103F2000A17A19B3022806D0042806D008280ED09A
:103F300010281BD10DE0002000E008208DF80000C3
:103F4000607A9DF80010B0EBD10F04D005E010208E
:103F5000F4E71820F2E7002038BD20686B46012204
:103F6000C17960680078FFF7B1FB08B1284638BD19
:103F70009DF80000C0086072EDE700008800002096
:103F8000F8B5354C0546A07CA84201D10020F8BD0B
:103F900031484FF0FF366B46D0E900104FF0010278
:103FA0000979007835B3FFF759FB70BB9DF8000025
:103FB0006B4620F020008DF8000020680122017976
:103FC00060680078FFF782FBF8B90320FEF7D2FCA7
:103FD00002208DF8000094F8220078B382202BE0B4
:103FE00020686B460122017D60680078FFF76EFB58
:103FF00058B92EE0FFF732FB38B9A07AC0079DF818
:10400000000003D040F0200002E00CE020F020008F
:104010008DF8000020686B46012201796068007805
:10402000FFF754FB08B13046F8BD0320FEF7A2FCB1
:1040300094F8220000B180208DF8000094F823004D
:104040000028CDD09DF8000040F030008DF8000031
:10405000C6E7A5749AE700008800002038B51C4C1C
:1040600094F8241081421DD0002500B394F8250057
:10407000D0B1002000F0C4FA0020FFF781FFE08CEF
:1040800000F0C6F88DF8005060686B460122007899
:104090002321FFF71BFB012084F8240000F0B0FA75
:1040A000FFF71AFE002038BD4FF0FF3038BD00206A
:1040B00000F0A6FA207C8DF8000060686B460122B3
:1040C00000782321FFF702FB84F82450E8E7000082
:1040D0008800002038B5194C4FF0FF35A17A31B374
:1040E000FA2809D0B0F5FA7F08D0B0F57A7F0FD062
:1040F000B0F5FA6F1BD10DE0002000E008208DF82C
:104100000000207A9DF80010B0EBD10F04D005E03C
:104110001020F4E71820F2E7002038BD20686B4635
:104120000122817960680078FFF7D0FA08B128464B
:1041300038BD9DF80000C0082072EDE7880000201F
:1041400038B5174C054694F82300A84201D1002049
:1041500038BD0DB1302000E000208DF80000A07CBB
:1041600028B19DF8000040F002008DF8000094F89E
:10417000220028B19DF8000040F080008DF800007A
:1041800020686B460122017D60680078FFF79EFA87
:1041900010B14FF0FF3038BD84F82350D7E700004E
:1041A0008800002038B5194C4FF0FF35A17A31B3A3
:1041B000BC2801D3012010E0622801D302200CE0CA
:1041C0002A2801D3032008E0142801D3042004E0A6
:1041D0000A2801D3052000E006208DF80000E07ACF
:1041E0009DF80010884201D1002038BD20686B4640
:1041F0000122817860680078FFF768FA08B12846E4
:1042000038BD9DF80000E072EEE700008800002055
:10421000F8B51E4D04464FF0FF37A87A48B395F81D
:10422000240030BB287D4FF47A7648B164B1282C45
:1042300003D8E0B2FFF7CAFC26E00020FFF7C6FC77
:10424000042C05D2042406E00020FFF7BFFCF9E7A8
:10425000B44200D93446B6FBF4F0401E8DF800009D
:1042600028686B460122417868680078FFF72EFACB
:1042700008B13846F8BD9DF80000401CB6FBF0F0D0
:10428000E8814008FFF78EFF0020F8BD880000207D
:10429000F8B5054610F0700F4FF0000601D0012070
:1042A00004E015B18DF8006002E040208DF80000B8
:1042B000244C6B4601222068817C60680078FFF7FF
:1042C00005FA4FF0FF3760BB9DF8000020F040007A
:1042D00020738DF80060680602D404208DF8000079
:1042E000A80605D49DF8000040F002008DF80000FB
:1042F000E80605D49DF8000040F001008DF80000AC
:10430000280705D49DF8000040F038008DF8000023
:1043100020686B460122C17C60680078FFF7D6F9FF
:1043200010B1A6723846F8BD25B1082D02D0002084
:10433000FFF706FFA57226753220FEF71BFB002053
:10434000F8BD000088000020F8B516000D464FF0BB
:10435000FF371FD0104CA17AE1B1010A8DF800108F
:10436000C0B28DF80100411960684289914211D8AC
:10437000216800786B46097E0222FFF7A7F948B949
:104380002068EAB23346417D60680078FFF79EF905
:10439000002800D03846F8BD880000202DE9FE4FE7
:1043A00051480068FCF7CFF9044650480068FCF714
:1043B000CAF9002C01DB214600E061424C4A462943
:1043C00008DC002801DB014600E04142462901DC0F
:1043D000012111600A236FF04501462C01DD4624BE
:1043E00002E08C4201DA0C461360462801DD4620CB
:1043F00002E0884201DA084613603E49DFF800A176
:10440000DFF800B10968661A3B493F4C0968451A54
:104410003A48007838B10020CAF80000CBF8000014
:10442000A060E0604AE0A0688719A760E0682844BF
:104430008146E0602069301AFCF76AF9334909685F
:104440000291FBF74AFF80463846FCF761F9304994
:1044500009680191FBF741FF07463046FCF758F920
:104460002C4909680091FBF738FF3946FBF7DDFE60
:104470004146FBF7DAFEFCF766F9CAF8000060690E
:10448000281AFCF745F90299FBF727FF80464846B2
:10449000FCF73EF90199FBF720FF07462846FCF799
:1044A00037F90099FBF719FF3946FBF7BEFE414685
:1044B000FBF7BBFEFCF747F9CBF80000C4E9046545
:1044C0001549A26848428A4201DDA16002E08242A9
:1044D00000DAA060E2688A4202DDE160BDE8FE8F9A
:1044E0008242FBDAE060F9E71000002014000020AF
:1044F00000000020300000203400002018000020C0
:10450000080000200C000020FC00002024000020F7
:10451000200000201C000020407E05000C4910B542
:10452000088800220A800B07998C9A84DB13094AB9
:10453000994203D94FF6E854611A00E049421160EC
:104540000549984202D9A0F57D40E838086010BDC1
:1045500024080040300000203400002010B588B04E
:10456000694604A8FFF760FC072835D107A8FFF7C4
:10457000CFF90498FCF7CCF807990C46FBF7ADFE91
:10458000FCF7E1F804900598FCF7C2F82146FBF728
:10459000A4FEFCF7D8F805900698FCF7B9F8214678
:1045A000FBF79BFEFCF7CFF8069004A8FEF7F8FB9C
:1045B00003A8FFF771F9BDF80C0000994143009181
:1045C0000199414301910299414368460291FEF7E6
:1045D00049FB02A0FDF7F6FC08B010BD73657474CA
:1045E000696E6720626961732073756363657366C2
:1045F000756C6C79202E2E2E2E2E2E0D0A000000AA
:10460000F8B5144C0146224694F82460D2E9000221
:1046100000235D1E56B179B1022111E0C17B1078F3
:104620006B460122FFF752F868B90EE0A67A56B140
:1046300011B1617C61B902E08DF80030EEE7012133
:104640008DF80010EAE72846F8BD9DF80000607478
:104650000020F8BD8800002070B505460801FCF771
:1046600060F80446294845436808FCF75AF8214693
:10467000FBF765FE0546FCF77FF884B22046FCF7A1
:1046800050F82946FBF726FE0421FBF796FEFCF7BF
:1046900073F84FF6FF7101EA04110A181C4881698A
:1046A00041F008018161C16941F48021C16119496A
:1046B0000B6823F47F430B600B6843F40B430B60E0
:1046C000144908310B6843F480630B60016941F4BD
:1046D00080210161016921F4802101610E4802807D
:1046E000001D018842F20C0211430180018841F44F
:1046F00080710180018841F020010180BDE8704097
:104700000223272203210120FCF7E2BE40420F00D2
:1047100000100240040C01400848004010B586B06B
:10472000012144F20400FDF7A7F84FF40070ADF842
:10473000100018208DF813000320214C8DF8120072
:1047400004A92046FCF7E6FB2015ADF81000042074
:104750008DF8130004A92046FCF7DCFB4FF47A30F7
:1047600000900020ADF80400ADF80600ADF8080098
:10477000ADF80C000C20134CADF80A006946204639
:10478000FDF7C8FB40212046FDF79EFB012240F2C9
:1047900025512046FDF7A5FB01212046FDF797FB9B
:1047A00025208DF8140001208DF8150007218DF8C3
:1047B00016108DF8170005A8FCF706FF06B010BD0F
:1047C00000080140003801406800000476005401F0
:1047D000F7FD000175191A0C6A231B1C1F20727447
:1047E000433B4138393A6B6C376F06246D6E70006D
:1047F00083000000000800000001001832000500DE
:10480000000020410000D242295C0F3E9A99993E57
:104810003333733F295C0F3E00007000000000241A
:10482000000000020003000000650054FFEF0000DC
:10483000FA80000B12820001030C30C30E8C8CE94D
:1048400014D5400213710F8E3883F8833000F8833B
:10485000258EF8833000F883FFFFFFFF0FFEA9D6F7
:10486000240004001A8279A10000003CFFFF000030
:104870000010000038836FA2003E033040000000AB
:1048800002CAE3093E800000200000000000000092
:104890004000000060000000000C0000000C186EDA
:1048A000000006920A16C0DFFFFF0256FD8CD37788
:1048B000FFE1C496E0C5BEAA00000000FFFF0B2B7D
:1048C00000001657000003594000000000001DFAC8
:1048D00000026C1D000000003FFFDFEB003EB3B69E
:1048E000000D227800002F3C00000000001942B5A6
:1048F000000039A20000B365D90E9FC91DCF4C340A
:1049000030000000500000003BB67AE80064000070
:1049100000C8000000000000100000001000FA9223
:104920001000225E000D229F0001000000320000F6
:10493000FF46000063D400001000000004D6000011
:1049400004CC000004CC0000000010720000004005
:104950000000000000000000000600020005000743
:1049600000000000006400000000000000000005DE
:1049700000050064002000000000000000000000AE
:10498000000040000000030000000032F898000022
:10499000FF650000830F0000FF9BFC00000000008B
:1049A0000000000000000000000000000000000007
:1049B00000000000000000000000000000000000F7
:1049C0000000000000001000400000000000000691
:1049D0000000B26A000200000001FB8300680000D2
:1049E00000D9FC007CF1FF8300000000006500009E
:1049F000006403E8006400280000002500000000B7
:104A000016A000000000100000001000002F0000A1
:104A1000000001F40000100000280000FFFF4581A5
:104A2000FFFFFA72000000000000000000440005D3
:104A30000005BAC6004778A200000001000000008F
:104A400000000600000000140000254D002F706DCE
:104A5000000005AE000C02D00000000000000000C5
:104A60000000000000000000001B0000000000002B
:104A700000000000000000000064000000080000CA
:104A80000000000000000000000000000000000026
:104A90000000000000000000000000000000000016
:104AA0000000000000000000000000000000000006
:104AB00000000000000000000000000000000000F6
:104AC00000000000000000000000000000000000E6
:104AD0000000000000000000001B000000000000BB
:104AE00000000000000E000E00000AC700040000D5
:104AF00000000032FFFFFF9C00000B2B00000002B3
:104B00000000000100000064FFE50000000000005C
:104B10000000000000000000000000010000000094
:104B20000001000000000000000180000001800082
:104B300000018000002426D30000000000000000D7
:104B4000000600100096003C00000000000000007D
:104B500000000000000000000C0A4E68CDCF77096D
:104B600050166759C619CE820000000000000000F0
:104B70000000000000000000000000000000000035
:104B800017D78400030000000000000000000000B0
:104B9000C7938F9D1E1B1C19000000000000000021
:104BA0000000000000000000000000000000000005
:104BB000020318850000400000000003000000030D
:104BC00000000000000000004000000000000000A5
:104BD00000000000000000000000000000000000D5
:104BE00000000000000000000000000000000000C5
:104BF000000000000000000000000000677DDF7E74
:104C000072902E554CF6E68800000000000000006F
:104C10000000000000000000D8DCB4B8B0D8B9AB88
:104C2000F3F8FAB3B7BB8E9EAEF132F51BF1B4B810
:104C3000B08097F1A9DFDFDFAADFDFDFF2AAC5CD01
:104C4000C7A90CC92C97F1A989264666B28999A9EA
:104C50002D557DB0B08AA896365676F1BAA3B4B277
:104C600080C0B8A89711B28398BAA3F02408441062
:104C70006418B2B9B49883F1A329557DBAB5B1A32C
:104C80008393F0002850F5B2B6AA839328547CF1A0
:104C9000B9A3829361BAA2DADEDFDB819AB9AEF5FD
:104CA000606870F1DABAA2DFD9BAA2FAB9A3829227
:104CB000DB31BAA2D9BAA2F8DF85A4D0C1BBAD83DB
:104CC000C2C5C7B8A2DFDFDFBAA0DFDFDFD8D8F107
:104CD000B8AAB38DB4980D355DB2B6BAAF8C96193B
:104CE0008F9FA70E161EB49AB8AA872C547CBAA41C
:104CF000B08AB691325676B28494A4C808CDD8B89A
:104D0000B4B0F19982A82D557D98A80E161EA22C3C
:104D1000547C92A4F02C5078F184A898C4CDFCD88F
:104D20000DDBA8FC2DF3D9BAA6F8DABAA6DED8BAFC
:104D3000B2B68696A6D0F3C841DAA6C8F8D8B0B401
:104D4000B882A892F52C548898F135D9F418D8F186
:104D5000A2D0F8F9A884D9C7DFF8F883C5DADF69EB
:104D6000DF83C1D8F40114F1A8824EA884F311D1D5
:104D700082F5D992289788F109F41C1CD884A8F3ED
:104D8000C0F9D1D99782F129F40DD8F3F9F9D1D925
:104D900082F4C203D8DEDF1AD8F1A2FAF9A8849807
:104DA000D9C7DFF8F8F883C7DADF69DFF883C3D83B
:104DB000F40114F198A8822EA884F311D182F5D9B8
:104DC00092509788F109F41CD884A8F3C0F8F9D15F
:104DD000D99782F149F40DD8F3F9F9D1D982F4C405
:104DE00003D8DEDFD8F1AD8898CCA809F9D9829232
:104DF000A8F57CF1883ACF944A6E98DB6931DAAD38
:104E0000F2DEF9D88795A8F221D1DAA5F9F417D9FD
:104E1000F1AE8ED0C0C3AE82C684C3A88595C8A5A6
:104E200088F2C0F1F4010EF18E9EA8C63E56F554EC
:104E3000F18872F40115F19845856EF58E9E04880F
:104E4000F142985A8E9E068869F4011CF1981E1151
:104E500008D0F504F11E970202983625DBF9D985B2
:104E6000A5F3C1DA85A5F3DFD88595A8F309DAA5FE
:104E7000FAD88292A8F578F1881A849F268898211A
:104E8000DAF41DF3D8879F39D1AFD9DFDFFBF9F40E
:104E90000CF3D8FAD0F8DAF9F9D0DFD9F9D8F40B55
:104EA000D8F3879F39D1AFD9DFDFF41DF3D8FAFCEF
:104EB000A869F9F9AFD0DADEFAD9F88F9FA8F1CC5A
:104EC000F398DB45D9AFDFD0F8D8F18F9FA8CAF3AC
:104ED0008809DAAF8FCBF8D8F2AD978D0CD9A5DF62
:104EE000F9BAA6F3FAF412F2D8950DD1D9BAA6F30D
:104EF000FADAA5F2C1BAA6F3DFD8F1BAB2B686964D
:104F0000A6D0CAF349DAA6CBF8D8B0B4B8D8AD84E5
:104F1000F2C0DFF18FCBC3A8B2B68696C8C1CBC3AF
:104F2000F3B0B48898A821DB718D9D71859521D946
:104F3000ADF2FAD88597A828D9F408D8F28D29DAE5
:104F4000F405D9F285A4C2F2D8A88D9401D1D9F480
:104F500011F2D88721D8F40AD8F28498A8C801D1D0
:104F6000D9F411D8F3A4C8BBAFD0F2DEF8F8F8F842
:104F7000F8F8F8F8D8F1B8F6B5B9B08A95A3DE3CE0
:104F8000A3D9F8D85CA3D9F8D87CA3D9F8D8F8F974
:104F9000D1A5D9DFDAFAD8B18530F7D9DED8F83023
:104FA000ADDADED8F2B48C99A32D557DA083DFDF76
:104FB000DFB591A0F629D9FBD8A0FC29D9FAD8A051
:104FC000D051D9F8D8FC51D9F9D879D9FBD8A0D08B
:104FD000FC79D9FAD8A1F9F9F9F9F9A0DADFDFDF1C
:104FE000D8A1F8F8F8F8F8ACDEF8ADDE8393AC2C75
:104FF000547CF1A8DFDFDFF69D2CDAA0DFD9FADBE5
:105000002DF8D8A850DAA0D0DED9D0F8F8F8DB55C2
:10501000F8D8A878DAA0D0DFD9D0FAF8F8F8F8DB19
:105020007DF8D89CA88CF530DB38D9D0DEDFA0D055
:10503000DEDFD8A848DB58D9DFD0DEA0DFD0DED84D
:10504000A868DB70D9DFDFA0DFDFD8F1A888902C5B
:10505000547C98A8D05C38D1DAF2AE8CDFF9D8B0A5
:1050600087A8C1C1B188A8C6F9F9DA36D8A8F9DA93
:1050700036D8A8F9DA36D8A8F9DA36D8A8F9DA365F
:10508000D8F78D9DADF818DAF2AEDFD8F7ADFA306B
:10509000D9A4DEF9D8F2AEDEFAF983A7D9C3C5C721
:1050A000F1889BA77AADF7DEDFA4F8849408A79770
:1050B000F300AEF29819A488C6A39488F632DFF202
:1050C0008393DB09D9F2AADFD8D8AEF8F9D1DAF3A5
:1050D000A4DEA7F1889B7AD8F38494AE19F9DAAAF2
:1050E000F1DFD8A881C0C3C5C7A39283F628ADDE7F
:1050F000D9F8D8A350ADD9F8D8A378ADD9F8D8F855
:10510000F9D1A1DADEC3C5C7D8A18194F818F2B0ED
:1051100089ACC3C5C7F1D8B8B4B09786A8319B068F
:105120009907AB9728889BF00C201440B0B4B8F0D6
:10513000A88A9A285078B79BA82951792470594495
:105140006938644831F1BBAB88002C547CF0B38BD8
:10515000B8A804285078F1B088B49726A85998BB0D
:10516000ABB38B02264666B0B8F08A9CA829517969
:105170008B2951798A2470598B2058718A44693857
:105180008B3940688A6448318B30496088F1AC00C3
:105190002C547CF08CA804285078F1889726A859C4
:1051A00098AC8C02264666F0899CA8295179247017
:1051B00059446938644831A98809205970AB1138BD
:1051C0004069A8193148608CA83C415C207C00F102
:1051D00087981986A86E767EA999882D557DD8B1B5
:1051E000B5B9A3DFDFDFAED0DFAAD0DEF2ABF8F9CE
:1051F000D9B087C4AAF1DFDFBBAFDFDFB9D8B1F127
:10520000A3978E60DFB084F2C8F8F9D9DED8938511
:10521000F14AB183A308B5839A0810B79F10D8F15B
:10522000B0BAAEB08AC2B2B68E9EF1FBD9F41DD828
:10523000F9D90CF1D8F8F8AD61D9AEFBD8F40CF17E
:10524000D8F8F8AD19D9AEFBDFD8F416F1D8F8AD1F
:105250008D61D9F4F4ACF59C9C8DDF2BBAB6AEFA17
:10526000F8F40BD8F1AED0F8AD51DAAEFAF8F1D8C7
:10527000B9B1B6A3839C08B9B1839AB5AAC0FD3071
:1052800083B79F10B58B93F20202D1ABDADED8F16F
:10529000B080BAABC0C3B284C1C3D8B1B9F38BA3D9
:1052A00091B609B4D9ABDEB0879CB9A3DDF1B38B5D
:1052B0008B8B8B8BB087A3A3A3A3B28BB69BF2A3DC
:1052C000A3A3A3A3A3A3A3A3A3F1B087B59AA3F316
:1052D0009BA3A3DCBAACDFB9A3A3A3A3A3A3A3A3FB
:1052E000A3A3A3A3A3A3A3A3D8D8D8BBB3B7F1AA5E
:1052F000F9DAFFD9809AAA28B48098A720B79787AF
:10530000A86688F07951F1902C870CA78197629359
:10531000F071716085940129517990A5F1284C6C48
:10532000870C95188578A38390284C6C886CD8F3EB
:10533000A28200F210A8921980A2F2D926D8F18890
:10534000A84DD948D896A83980D93CD89580A83995
:10535000A68698D92CDA87A72CD8A8899519A98070
:10536000D938D8A88939A980DA3CD8A82EA839908C
:10537000D90CD8A8953198D90CD8A809D9FFD8014B
:10538000DAFFD89539A9DA26FFD890A80D8999A80F
:1053900010809821DA2ED88999A83180DA2ED8A8E1
:1053A00086963180DA2ED8A8873180DA2ED8A88266
:1053B00092F34180F1D92ED8A882F31980F1D92E29
:1053C000D882ACF3C0A28022F1A62EA72EA92298E3
:1053D000A829DAACDEFFD8A2F22AF1A92E8292A87F
:1053E000F23180A696F1D900AC8C9C0C30ACDED0AA
:1053F000DEFFD88C9CACD010ACDE8092A2F24C8246
:10540000A8F1CAF235F19688A6D900D8F1FF0000BC
:1054100050726F6475637420494420726561642022
:105420006173203020696E64696361746573206400
:1054300065766963652069732065697468657220A3
:10544000696E636F6D70617469626C65206F722044
:10545000616E204D5055333035302E0D0A0000005E
:105460008054000800000020280100000C200008E3
:10547000A855000828010020100800001C20000882
:10548000010000000000000000000000000000001B
:105490000000000000000000000000000000E040EC
:1054A00000000040000000000000000000000000BC
:1054B00000000000000000000000000002040608D8
:1054C00000000000010203040102030406070809AA
:1054D00000000000000000000000000000000000CC
:1054E000242B31323334352C2B31323334350A000E
:1054F00000232B31323334352C2B31323334350AFF
:105500000000000000000000D4470008C847000861
:10551000000000000000000000000000000000008B
:10552000000000000000000000000000000000007B
:10553000F0470008000000000000803F000000006D
:10554000000000000000000000000000000000005B
:105550000000000000000000FF000000FF0000004D
:10556000010000000000000000000000245356501D
:1055700030303030303030230000000000000000B8
:10558000000000000000000000000000000000001B
:10559000000000000000000000000000000000000B
:0855A000000000000000000003
:0400000508000135B9
:00000001FF
